:020000040800F2
:1000000030480020290200083102000833020008AD
:10001000350200083702000839020008000000001D
:100020000000000000000000000000009101000836
:100030003D02000800000000D50100088509000805
:10004000430200084302000843020008430200087C
:10005000430200084302000843020008430200086C
:10006000430200084302000843020008430200085C
:10007000430200080106000843020008430200088A
:10008000430200084302000843020008430200083C
:10009000430200084302000843020008430200082C
:1000A000430200084302000843020008430200081C
:1000B0004302000843020008190A0008430200082E
:1000C00043020008430200084302000843020008FC
:1000D00043020008430200084302000843020008EC
:1000E00043020008430200084302000800F002F83F
:1000F00000F03FF80AA090E8000C82448344AAF183
:100100000107DA4501D100F034F8AFF2090EBAE880
:100110000F0013F0010F18BFFB1A43F0010318473B
:10012000E862000008630000103A24BF78C878C174
:10013000FAD8520724BF30C830C144BF04680C60ED
:10014000704700000023002400250026103A28BF35
:1001500078C1FBD8520728BF30C148BF0B60704739
:10016000642900F0C980002070471FB51FBD10B57D
:1001700010BD00F0EEF91146FFF7F7FF00F06EFE3C
:1001800000F00CFA03B4FFF7F2FF03BC00F014FA1E
:10019000224B19680868B0E8F00F80F30988BFF3B4
:1001A0006F8F4FF0000080F311884EF00D0E7047F6
:1001B0000000000006480068006880F3088862B606
:1001C00061B6BFF34F8FBFF36F8F00DF00BF00BF7B
:1001D00008ED00E0EFF30980BFF36F8F0F4B1A6853
:1001E00020E9F00F106008B54FF0BF0080F31188D0
:1001F000BFF34F8FBFF36F8F01F05CFF4FF0000034
:1002000080F31188BDE8084019680868B0E8F00F6D
:1002100080F30988BFF36F8F704700BF4000002054
:10022000EFF3058070470000094880470948004700
:10023000FEE7FEE7FEE7FEE7FEE7FEE7FEE7FEE796
:10024000FEE7FEE704480549054A064B70470000F3
:10025000B9090008ED0000083042002030480020B5
:1002600030440020304400200FB41CB5074B06AAD0
:100270007B4469460090059800F021F9002069460A
:1002800000F030F91CBC5DF814FB000071020000A6
:100290002DE9F0410E460446002020622046E16828
:1002A000884730B3252805D0D4E901219047206A3A
:1002B000401CF2E7E168204600278847050018D077
:1002C000A5F14100192802D820354FF400673246C5
:1002D000294620462760FFF743FF40B1012804D09C
:1002E000F61D26F007060836D8E7361DD6E728465D
:1002F000DAE7206ABDE8F0812DE9F04106460024E6
:1003000010687529314616A510D0AFF3008000287B
:1003100002DA404213A507E031688A0701D512A529
:1003200002E0490704D511A5012401E0AFF30080E4
:1003300000210A2206F1240709E0B0FBF2FCB0FB21
:10034000F2F302FB1C00303078541846491C002898
:10035000F3D123462A463046BDE8F04100F050B8BC
:10036000000000002D0000002B0000002000000015
:10037000032A40F2308010F0030C00F0158011F8D1
:10038000013BBCF1020F624498BF11F801CB00F8A9
:10039000013B38BF11F8013BA2F1040298BF00F8FD
:1003A00001CB38BF00F8013B11F0030300F09F8040
:1003B000083AC0F0088051F8043B083A51F804CBE1
:1003C000A0E80810F5E7121D5CBF51F8043B40F8A7
:1003D000043BAFF30080D20724BF11F8013B11F8B2
:1003E00001CB48BF11F8012B24BF00F8013B00F8F6
:1003F00001CB48BF00F8012B70477047704770472A
:100400002DE9F0470D4699469246044600F124082E
:100410000168880604D5E06921F01001216000E040
:100420000120A84201DD471B00E00027A1697A19DD
:1004300002EB0900081AA0612078C00602D4204609
:10044000AFF30080002608E0D4E901211AF8060085
:100450009047206A401C761C20624E45F4DB2078D1
:10046000C0060AD52046AFF3008006E0D4E901219A
:1004700030209047206A401C2062381EA7F10107F7
:10048000F4DC07E0D4E9012118F805009047206A60
:10049000401C2062281EA5F10105F3DC2046AFF3C5
:1004A00000802078000602D50220BDE8F0870120F8
:1004B000FBE7000001694A1C02610878704700B53B
:1004C0008FB0CDE901310021059105497944CDE98D
:1004D000031011466846FFF7DBFE0FB000BD0000B9
:1004E000E5FFFFFF0A6802F8010B0A60704710B5CC
:1004F000203AC0F00B80B1E81850203AA0E818501C
:10050000B1E81850A0E81850BFF4F5AF5FEA027CDC
:1005100024BFB1E81850A0E8185044BF18C918C04B
:10052000BDE810405FEA827C24BF51F8043B40F8EC
:10053000043B08BF7047D20728BF31F8023B48BFD1
:1005400011F8012B28BF20F8023B48BF00F8012B0F
:100550007047754600F02CF8AE46050069465346D4
:1005600020F00700854618B020B5FFF76BFEBDE808
:1005700020404FF000064FF000074FF000084FF00A
:10058000000B21F00701AC46ACE8C009ACE8C0099B
:10059000ACE8C009ACE8C0098D46704710B5044608
:1005A000AFF300802046BDE81040FFF7EBBD000030
:1005B00000487047D041002001491820ABBEFEE73B
:1005C00026000200704730B50246002011E011F805
:1005D000014B604000230AE000F001041CB18C24B0
:1005E00084EA600400E0441020465C1CE3B2082B5F
:1005F000F2DB141EA2F10105EAB2E8D130BD000021
:100600000548006800F4007028B10348406840F4D1
:100610000070014948607047000002402A48806924
:1006200040F00100284988610846806940F4804014
:1006300088610846806940F00400886123480068AA
:1006400020F03000214908600846006840F0300082
:1006500008600846006820F0C0000860084600688E
:1006600040F0C000086040F2712019490880081D60
:10067000008840F00C00091D088015480C300088E7
:1006800040F0080012490C3108800F48406940F0E2
:1006900001000D4948610E48001F0E4908660E48CA
:1006A00048660820C865002088658020886508485D
:1006B000001FC86408480865082088640020486452
:1006C0009020486470470000001002400408014078
:1006D0000838014000000240000000201E48008849
:1006E00020F400501C4A108041F64C50121F10801C
:1006F000101D008840F40050121D108016480C3860
:10070000008840F04000144A0C3A1080F020121D7E
:10071000108000BF10480C38008800F0400000280E
:10072000F8D00D4808380088C1B20B48008820F482
:100730000050094A108040F27120121F1080101DD5
:10074000008840F40050121D1080F02901D00120D3
:1007500070470320FCE700000C3801402DE9F0470A
:1007600080460C4615461E46DDE908974FF0000A04
:10077000B8F1010F05D1FFF7B1FF032801D1BDE8A2
:10078000F0875EE03148008820F400502F4908804F
:1007900020782F4900F060F8641C681EC5B240F252
:1007A00071202A49091F0880081D008840F4005064
:1007B000091D088008202749C86588640846806D9F
:1007C00040F0010088650846406C40F00100486434
:1007D0001E480830008840F0C0001C4908310880DD
:1007E00000BF1C48006800F400300028F9D0194808
:1007F000406840F40030174948600846806D20F09A
:10080000010088650846406C20F0010048640F48EC
:100810000830008820F0C0000C490831088067B912
:10082000B9F1000F09DD0A4800F027F83070761C96
:10083000A9F1010000F0FF0903E0FF2F01D0781EAD
:10084000C7B2002D9EDC012099E700000C38014062
:10085000000000200000024000220BE000F0010335
:1008600013B1FF230B7001E000230B70491C4010F3
:10087000531CDAB2082AF1DB70470146002000223F
:1008800008E040100B78FF2B01D140F08000491C9C
:10089000531CDAB2082AF4DB704710B500F002F8F6
:1008A00010BD00000CB50020019000903348006896
:1008B00040F480303149086000BF3048006800F4DF
:1008C000003000900198401C0190009818B90198E0
:1008D000B0F5A06FF1D12948006800F4003010B1E4
:1008E0000120009001E0002000900098012843D1F1
:1008F0002348006840F0100021490860084600685D
:1009000020F0030008600846006840F0020008601C
:100910001A484068194948600846406848600846D7
:10092000406840F4806048600846406820F47C10CD
:1009300048600846406840F4E8104860084600688F
:1009400040F08070086000BF0C48006800F0007044
:100950000028F9D00948406820F0030007494860A2
:100960000846406840F00200486000BF0348406805
:1009700000F00C000828F9D10CBD00000010024066
:100980000020024010B500BFBF2080F31188BFF3E4
:100990004F8FBFF36F8F00BF01F0A0FE18B14FF073
:1009A00080500449086000BF002080F3118800BF18
:1009B00010BD000004ED00E010B51348006840F0E1
:1009C00001001149086008464068104908400E4976
:1009D0004860084600680E4908400B490860084610
:1009E000006820F4802008600846406820F4FE007B
:1009F00048604FF41F008860FFF74FFF4FF0006022
:100A00000449086010BD0000001002400000FFF81B
:100A1000FFFFF6FE08ED00E01048008800F001003E
:100A2000D0B10E48008820F001000C490880012058
:100A30000B4908700B480078401C0A4908700846AA
:100A400000780A2808DB08480078C04320B100205D
:100A500005490870034908707047000010080040FD
:100A60003000002032000020310000204248806920
:100A700040F01000404988610846C06940F001001C
:100A8000C8610846806940F00100886108468069B5
:100A900040F0040088610846806940F008008861E1
:100AA0000846C06940F40010C8610846406940F03B
:100AB000010048613148006840F000702F4908602B
:100AC0000846006840F0807008600846006820F022
:100AD000406008600846006840F000600860084612
:100AE000006840F0806008600846006840F00050F0
:100AF00008600846006840F08050086008460068BA
:100B000020F0404008600846006840F0004008605F
:100B10000846006840F0804008601948008820F0CE
:100B20003F00174908800846008840F024000880EC
:100B300013481830008820F480401149183108808B
:100B40000846008840F400400880084600886FF39B
:100B50000B0008800846008840F01E0008800C202A
:100B6000091D08800648001F008840F00100044964
:100B7000091F08807047000000100240000C01406F
:100B800004540040AB48806940F01000A9498861D6
:100B90000846806940F4006088610846C06940F0FA
:100BA0000100C8610846C06940F00200C8610846FB
:100BB000806940F0010088610846806940F00400C7
:100BC00088610846806940F0080088610846C0696D
:100BD00040F40010C8610846406940F001004861D7
:100BE0009548406820F440109349486008464068A2
:100BF00040F4001048600846406840F480104860A7
:100C00000846406820F4400048608C48006820F0A6
:100C100030008A4908600846006820F0C00008607B
:100C20000846006840F0400008600846006820F070
:100C3000030008600846006820F00C0008600846C1
:100C4000006840F004000860CA204107888540071A
:100C5000008B40F201110843890708830846008B86
:100C60004FF2F00108434FF08041088308460089A5
:100C700040F0030008810846008840F00100088029
:100C800040F2E7306E49088041F61F40091F088096
:100C90006C486D4988636D48C8630846006B20F056
:100CA00010000863012048630846006B20F04000F4
:100CB00008630846006B40F0800008630846006B3C
:100CC00040F4807008630846006B40F4806008635D
:100CD0000846006B40F4405008630846006B40F043
:100CE000200008630846006B40F0010008630846D6
:100CF000006B40F00200086351482038008840F43F
:100D000080704F49203908804D482838008840F0CD
:100D100008004B4928390880081F008840F001006E
:100D2000091F08804A48406840F040004849486030
:100D30004248006840F0405040490860084600685A
:100D400040F0004008600846006820F080400860DD
:100D5000081D006840F00300091D0860084600688F
:100D600040F0080008600846006820F004000860B1
:100D700000203849088040F2E730364908310880C1
:100D80000020091F088033482438008840F0800084
:100D90003049243908802F480C38008840F068001A
:100DA0002C490C3908802B48001F008840F00500B2
:100DB0002849091F08804FF4FA702649103108802D
:100DC00024482030008840F0470022492031088024
:100DD00020482038008840F400701E4920390880DF
:100DE0001C482030008840F4E8401A49203108802F
:100DF0000846008840F400400880164824380088DF
:100E000040F0010013492439088040F2E7301249CC
:100E1000088041F61F40091F088001200E49203933
:100E200008800D482C38008840F001000A492C3910
:100E30000880704700100240001001400008014087
:100E40002C04004024000040000002402C00002040
:100E500000000140242C01402C0800401CB5FFF785
:100E600091FEFFF7DBFB00F084FEFF2000210B4624
:100E70000222CDE9001031A10120FFF76FFC002212
:100E80000421012001F008FA2D4908600846006895
:100E900010B900E000BFFDE72A48032100238022AB
:100EA000CDE9001028A12B4801F0D2FB0446012C0B
:100EB00003D12448006801F037F8274802210023B5
:100EC0008022CDE9001025A1284801F0C1FB04468D
:100ED000012C03D12048006801F026F824480221A3
:100EE00000238022CDE9001022A1254801F0B0FBAB
:100EF0000446012C03D11E48006801F015F8214872
:100F0000002301224FF4FA7100901FA001F04CFD64
:100F1000204908600846006858B101F0D9FB054631
:100F2000002003462A46012100901A48006801F07B
:100F300071FD01F07FF800BFFEE70000CC44000027
:100F400018000020100000205461736B5F6D616910
:100F50006E000000FD210008080000205461736B42
:100F60005F64733138623230000000002D210008C8
:100F70000C0000205461736B5F7365747570000022
:100F8000612200085D1D000854696D65725F6D691E
:100F900067000000140000202DE9F04105460E46D0
:100FA0001648076816480068001D00F0C2FE681C5D
:100FB00038B936B112480168091D124800F002FF25
:100FC0001AE07C190E4800684460BC4207D20C4805
:100FD0000168091D0C48006800F0DAFE0CE00848C2
:100FE0000168091D0948006800F0D2FE0848006841
:100FF000844201D206480460BDE8F081540000201C
:1010000040000020944100204800002044000020BF
:101010007000002010B5044600F0E0FE2248006891
:10102000401C214908602148006840B91F480460FD
:101030000846006801280DD100F08CF90AE01C4830
:10104000006838B919480068C06AE16A884201D866
:101050001648046017480068401C16490860164985
:10106000E06A0968884202D91349E06A0860E16AC7
:1010700001EB8101114A02EB8100211D00F0A2FE6B
:1010800000F0BEFE0A48006868B108480068C06AFF
:10109000E16A884207D24FF0805009490860BFF3E7
:1010A0004F8FBFF36F8F10BD500000204000002015
:1010B0005C0000206C00002058000020E040002070
:1010C00004ED00E010B500F089FE10480068D0B9CA
:1010D0000F4800F04DFE0F4800F04AFE0C480E4944
:1010E00008600C480D490860002210210A2001F018
:1010F000D3F8064908600846006820B108A10348F3
:10110000006800F09BFE00F07BFE10BD8400002014
:10111000A8410020BC4100207C000020800000206D
:10112000546D72510000000010B516E000F056FE3C
:101130000C48C068C468201D00F0FBFD0A48006828
:10114000401E0949086009480068401E07490860B8
:1011500000F056FE204600F05EF8044800680028C3
:10116000E4D110BD80410020500000204C00002040
:1011700070B504460D46206C70B1216CE0680844DF
:10118000E0606168E068884201D32068E06028463A
:10119000226CE168FFF7ECF870BD2DE9F0410446E0
:1011A0000F4615464FF00008A66B206C40B920682A
:1011B00060BB606801F014FB80460020606025E0A1
:1011C0007DB93946226CA068FFF7D2F8216CA0687F
:1011D0000844A060D4E90110884217D32068A060B9
:1011E00014E03946226CE068FFF7C2F8216CE06831
:1011F000401AE0602168E068884203D2216C606890
:10120000401AE060022D01D106B1761E701CA06369
:101210004046BDE8F08110B50446206B00F000FEAA
:10122000204600F0FDFD10BD0146084A1268126814
:101230000AB9012200E000220A600A6822B9034AC2
:101240001268D268106800E0002070477C0000201F
:1012500000BFFFF769FF064800680128F9D94FF081
:10126000805004490860BFF34F8FBFF36F8FF0E7E2
:10127000E040002004ED00E02DE9F04106460D4677
:1012800017469846069C0DB9246000E02760E66387
:1012900025640121204601F01BF8BDE8F0812DE90D
:1012A000FF5F80460F469146DDE90E6A109CA9F16A
:1012B0000100216B01EB800B2BF0070B002507E0F1
:1012C000795D04F134004155785D00B902E06D1C90
:1012D000102DF5D300BF002143200155052E00D36A
:1012E0000426E66266640020A064201D00F04DFD27
:1012F00004F1180000F049FD2461C6F10500A06169
:1013000064620020E06484F8500041465846039A25
:1013100000F064FA2060BAF1000F01D0CAF8004072
:10132000BDE8FF9F2DE9F04705460E461746984653
:10133000DDE908945CB1FFF7C5FE2560A661E761B1
:10134000C4F82080C4F82490201D00F01EFDBDE8E4
:10135000F087000010B5002407E004EB84010F4A79
:1013600002EB810000F004FD641C052CF5D30C4851
:1013700000F0FEFC0B4800F0FBFC0B4800F0F8FC12
:101380000A4800F0F5FC0A4800F0F2FC044809495C
:10139000086004480849086010BD0000E0400020D3
:1013A00044410020584100206C4100208041002031
:1013B0009441002044000020480000202DE9F04125
:1013C00004460D4616461F464FF00008656024612E
:1013D000B5420CD8F01BA169884202D34FF0010836
:1013E00011E0211D0948006800F0D2FC0BE0BE426C
:1013F00004D2BD4202D34FF0010804E0211D04488D
:10140000006800F0C5FC4046BDE8F0818000002087
:101410007C00002070B5054600F0E0FCA86B08B920
:10142000012400E0002400F0EBFC204670BD70B504
:10143000054600F0D3FCA86BE96B884201D101247A
:1014400000E0002400F0DCFC204670BDF8B5054645
:101450000E4610480068C068C468201D00F069FC92
:10146000E069012811D1A06941192B463246204676
:10147000FFF7A4FF48B1002003462A46014600902A
:10148000204601F0C7FA074600BF2046616A884738
:10149000F8BD00007C000020F0B587B056E003984E
:1014A000002805DA04AED6E90020B168904700BFF5
:1014B000039800284ADB059C606908B9012000E018
:1014C000002010B9201D00F034FC02A800F09EF8A6
:1014D000054603980A2837D2DFE800F009050725FA
:1014E00027320608262800BF00BF00BF00BF0498AF
:1014F000A269811803462A462046FFF75FFF88B19C
:101500002046616A8847E06901280BD100200090DD
:101510000498A169421800231946204601F07AFA7E
:10152000074600BF11E000BF0FE000BF0498A061B4
:10153000A06941192B462A462046FFF73FFF04E0E9
:10154000204600F06DFC00E000BF00BF002203A9B0
:101550000348006800F0CCFF0028A0D107B0F0BD20
:1015600084000020F8B505460C4600F09BFD684657
:1015700000F04CF80646009820BB44B9B54206D8A6
:1015800001F09EF931462846FFF760FF1CE03CB1B0
:101590000E480068006808B9012000E000200446F9
:1015A000A91B22460A48006800F05EFC01F088F999
:1015B00050B94FF0805007490860BFF34F8FBFF319
:1015C0006F8F01E001F07CF9F8BD00008000002081
:1015D0008400002004ED00E00A490968096809B99F
:1015E000012100E0002121B14FF0FF31064A1160D6
:1015F00006E004490968C968C868034A416811607F
:1016000070470000440000207000002070B50446C0
:1016100001F05EF8054607480068854204D200F0F4
:101620000BF80120206001E00020206001480560E7
:10163000284670BD8C0000202DE9F84326E01D48A7
:101640000068C06805681B480068C068C468201D41
:1016500000F06FFB2046616A8847E069012815D1D8
:10166000A0694619AE4207D966602461211D114860
:10167000006800F08DFB09E0002003462A46014681
:101680000090204601F0C6F9804600BF0948006876
:10169000006808B9012000E000200028CFD00548EC
:1016A0000768054800680349086003480760BDE80B
:1016B000F88300007C0000208000002000BFBF20D5
:1016C00080F31188BFF34F8FBFF36F8F00BF00BF50
:1016D000FEE708B500BF6846FFF7A6FD04462046B2
:1016E0000099FFF73FFFFFF7D7FEF4E770B5044618
:1016F00000F074FB94F9455010E0606A08B90120CD
:1017000000E0002038B904F1240001F099F818B184
:1017100000F066FC00E003E0681E45B2002DECDC42
:1017200000BFFF2084F8450000F06AFB00F056FB84
:1017300094F9445010E0206908B9012000E000202D
:1017400048B904F1100001F07BF808B100F048FC42
:10175000681E45B200E001E0002DECDC00BFFF2078
:1017600084F8440000F04CFB70BD000070B50446E6
:10177000002504F0070020B104F00700C0F10800C4
:10178000044400F08FFC1248006820B9114820F092
:1017900007000F49086010480068204443F6F831FC
:1017A000884210D20C48006820440B4909688842DE
:1017B00009D90748006808490968451806480068BB
:1017C00020440549086001F07BF8284670BD000000
:1017D000380000209804002034000020001F4FF043
:1017E00080730360001F21F001030360001F034B9F
:1017F000036014380260203870470000BD160008EE
:1018000070B5A0B00646002411E02146002000F08B
:101810009FF9002503E00DF80560681CC5B2802D16
:10182000F9DB8021684600F03DF9601CC4B2082C49
:10183000EBDB0021084600F08BF920B070BD000002
:101840002DE9F043BCB08146884600260025484675
:1018500000F066FA0746B8F1030F00DDA846B8F1BC
:10186000030F1ED1002319E019F803007D4951F838
:10187000200028A941F8230028A850F823007A491D
:1018800051F8200014A941F8230028A850F823009B
:10189000764951F820004DF823005B1CBB42E3D38E
:1018A0001DE0002319E019F80300714951F82000E8
:1018B00028A941F8230028A850F823006D4951F8C1
:1018C000200014A941F8230028A850F823006A49F1
:1018D00051F820004DF823005B1CBB42E3D3B8F164
:1018E000010F06D0B8F1020F45D0B8F1030F7DD13A
:1018F00086E000233CE0002409E014A850F823000F
:1019000020445E490D5C30195D490D54641C5DF83E
:101910002300A042F1D800240DE014A850F82300C1
:101920005DF823100844204454490D5C3119544893
:1019300080304554641C5DF82300A042EDD800249B
:101940000EE014A850F823005DF82310022202FBD9
:101950000100204449490D5C31194A484554641C32
:101960005DF82300A042ECD85DF8230006445B1C20
:10197000BB42C0D372E000233FE000240AE014A879
:1019800050F8230020443D490D5C31193D4880301A
:101990004554641C5DF82300A042F0D800240CE0FC
:1019A00014A850F823005DF823100844204433495C
:1019B0000D5C311934484554641C5DF82300A04285
:1019C000EED800240FE014A850F823005DF823108F
:1019D000022202FB0100204428490D5C31192A48EB
:1019E00080304554641C5DF8230000E035E0A042DF
:1019F000E9D85DF8230006445B1CBB42BDD32DE053
:101A0000002327E0002409E014A850F82300204414
:101A10001E490D5C31191E484554641C5DF82300B5
:101A2000A042F1D800240DE014A850F823005DF87E
:101A300023100844204415490D5C311914488030A6
:101A40004554641C5DF82300A042EDD85DF82300E6
:101A500006445B1CBB42D5D300E000BF00BF3CB0D6
:101A6000BDE8F083045A0008045E0008086100081D
:101A700008450008084900080C4C0008802A0008A6
:101A80009000002090010020900200200C4F0008E0
:101A90009003002010B504462146002000F0BCF859
:101AA00010BD000010B50022284B1B8843F4807342
:101AB000264C238000BF254B14331B8803F0010301
:101AC000002BF8D0214B14331B8878231F4C103483
:101AD000238000BF1D4B14331B8803F00203002B2F
:101AE000F8D01A4B14331B88184B18331B8840232B
:101AF000164C1034238000BF144B14331B8803F0A2
:101B00008003002BF8D000220EE010F8013B0F4CB0
:101B10001034238000BF0D4B14331B8803F0800367
:101B2000002BF8D0531CDAB24B1E9342EDDA00BF03
:101B3000064B14331B8803F00403002BF8D0034B2F
:101B40001B8843F40073014C238010BD00540040F7
:101B500030B504460D4604F00F00FFF79BFF10213F
:101B600041EA2410FFF796FF45F0B000FFF792FF1F
:101B700030BD00B5FEF77AFFAE20FFF78BFFD52012
:101B8000FFF788FF8020FFF785FFA820FFF782FF7F
:101B90003F20FFF77FFFD320FFF77CFF0020FFF7F8
:101BA00079FF4020FFF776FF8D20FFF773FF1420A9
:101BB000FFF770FF2020FFF76DFF0020FFF76AFF9F
:101BC000A020FFF767FFC020FFF764FFDA20FFF7D0
:101BD00061FF1220FFF75EFF8120FFF75BFF7F2090
:101BE000FFF758FFD920FFF755FFF120FFF752FF0D
:101BF000DB20FFF74FFF4020FFF74CFFA420FFF74B
:101C000049FFA620FFF746FF0020FFF7F9FDAF20B0
:101C1000FFF740FF00BD00001F4A128842F48072A7
:101C20001D4B1A8000BF1C4A1432128802F00102B8
:101C3000002AF8D0184A143212887822164B103332
:101C40001A8000BF144A1432128802F00202002ADD
:101C5000F8D0114A143212880F4A183212880E4AEC
:101C60001032108000BF0C4A1432128802F0800239
:101C7000002AF8D0084A1032118000BF064A1432F8
:101C8000128802F00402002AF8D0034A128842F4B3
:101C90000072014B1A8070470054004030B5054671
:101CA000012D04D0022D13D0032D33D121E00024C7
:101CB0000BE021460020FFF74BFF184901EBC41051
:101CC0008021FFF7EFFE601CC4B2042CF1DB22E0A0
:101CD00003240BE021460020FFF73AFF0F4901EBF8
:101CE000C4108021FFF7DEFE601CC4B2062CF1DBBD
:101CF00011E006240BE021460020FFF729FF0749E9
:101D000001EBC4108021FFF7CDFE601CC4B2082C8B
:101D1000F1DB00E000BF00BF30BD000090000020FC
:101D20000146002001E0421CD0B20A5C002AFAD130
:101D3000704701460A69D1E901309860D1E9010391
:101D400058605068884201D188685060002008615E
:101D50001068401E10601068704700000349C96891
:101D600081F40051014AD160704700000010014029
:101D700000F1080141604FF0FF31816000F108017E
:101D8000C16001610021016070470021016170475D
:101D900010B502460B685C1C0CB9106907E002F133
:101DA000080000E04068446824689C42FAD944680E
:101DB0004C604C68A160886041600A611468641CD2
:101DC000146010BD42684A6093688B6093685960E4
:101DD0009160086103685B1C0360704700BFBF200F
:101DE00080F31188BFF34F8FBFF36F8F00BF03489D
:101DF0000068401C01490860704700003C0000205A
:101E000006480068401E054908600846006820B979
:101E1000002080F3118800BF00BF70473C00002005
:101E20007047000000204FF0E021086188610248FF
:101E300048610720086170473F19010002460020F1
:101E40000BE0084B53F8303033B9064B43F83010F1
:101E500003EBC0035A6002E0401C0A28F1D300BF24
:101E600070470000904000202DE9F04105460E46E5
:101E700017462C46FFF7B2FF94F94400401C10B9F6
:101E8000002084F8440094F94500401C10B900205B
:101E900084F84500FFF7B4FFA06B28B93A463146F5
:101EA00004F1240000F0B2F82046FFF71FFCBDE863
:101EB000F08100002DE9F047044688464FF0000904
:101EC00000F0F0F816480668206800EB0805206866
:101ED000B04207D92068A8420BD9B54209D94FF0C2
:101EE000010906E02068A84201D8B54201D94FF0A7
:101EF00001092560B9F1000F03D0A81B0021FFF7ED
:101F00004BF800F0DDFC07463FB94FF08050054923
:101F10000860BFF34F8FBFF36F8FBDE8F0870000FD
:101F20005400002004ED00E070B50546FFF756FFB1
:101F300015B91E48006800E028460446201DFFF73A
:101F4000F8FEA06A18B104F11800FFF7F2FE184875
:101F50000068401C1649086014480068844209D192
:101F6000211D1448FFF72EFF13480068401C12493A
:101F7000086009E011480068401E104908602046CA
:101F8000FFF749F9FFF728FBFFF73AFF0C48006815
:101F900058B106480068844207D14FF08050094983
:101FA0000860BFF34F8FBFF36F8F70BD40000020FC
:101FB0006C000020804100204C00002050000020D8
:101FC0005C00002004ED00E003490968016003495A
:101FD000096841607047000068000020540000203C
:101FE00001200149086070476400002070B5054673
:101FF0000C460548016818312846FFF7C9FE012143
:102000002046FEF7C9FF70BD4000002070B50646AF
:102010000D4614460648016818313046FFF7D2FED7
:102020000CB14FF0FF3521462846FEF7B5FF70BDD5
:10203000400000201CB5144800210B468022CDE949
:10204000001012A1134800F003FB0446012C02D13A
:1020500000F0C2FC0446012C14D100BFBF2080F365
:102060001188BFF34F8FBFF36F8F00BF4FF0FF306A
:1020700009490860012009490860002008490860F2
:1020800000F0F0F81CBD00007400002049444C45ED
:102090000000000051120008700000205C000020C9
:1020A0005400002002480068401C01490860704745
:1020B000780000201848006818B10120174908600E
:1020C00028E00020154908601548016800E0491E15
:1020D00001EB8100134A52F8200008B9012000E00A
:1020E00000200028F3D101EB81020E4B03EB8200AC
:1020F00042685268426000F108024368934202D18C
:102100004268526842604268D268074B1A600448CD
:10211000016000BF704700007800002064000020CC
:1021200058000020E04000204000002088B000BFA0
:102130002748039000F0CCFA049000BFFF20002154
:102140000B460222CDE9001022A10120FEF706FB7A
:102150000120214908700020204908801F481438B8
:10216000008820F001001D491439088000201C4916
:10217000087000E000BF184800780028FAD119481C
:10218000C06880F400501749C86072B602200B2165
:1021900005AB0A46CDE9001013A10120FEF7DEFAD7
:1021A0001449087005A90920FEF70DFA00B900E0EE
:1021B00000BF62B600231A4603A90F48006800F06A
:1021C000C7F84FF47A7104A8FFF774FEB6E7000071
:1021D0001C000020CC4400003100002024080040F6
:1021E0003200002000100140CCBEFFFFFFFFFFFFC8
:1021F000FFFFFF00290000201800002088B000BF6A
:10220000002201A91148006800F072F938B19DF868
:1022100009004007400E9DF8081040EA21159DF87E
:10222000080000F00F04600000EBC40424112346F2
:102230002A4607A105A8FEF717F8022105A8FFF70F
:10224000FFFA0220FFF72AFDDAE70000180000205D
:10225000D2E5ECEFE5F03D25642E2564000000009A
:1022600000BFFEE710B50A48006840F47F00084947
:1022700008600846006840F07F400860FFF7D2FD24
:10228000002004490860FDF795FF002010BD000004
:1022900020ED00E03C0000202DE9F84307460D4604
:1022A00090460DB9002601E007FB05F606F148004F
:1022B000FFF75CFA044644B104F1480943464A4634
:1022C000294638460094FEF7D7FF2046BDE8F8833C
:1022D00070B505460E462C46FFF780FDD4E90F1277
:1022E000206801FB020060600020A0632068A060FD
:1022F000E06B401E226C216800FB0210E060FF20B2
:1023000084F8440084F845009EB9206908B901208A
:1023100000E00020A8B904F1100000F091FA80B1AB
:102320004FF0805009490860BFF34F8FBFF36F8FA4
:1023300007E004F11000FFF71BFD04F12400FFF794
:1023400017FDFFF75DFD012070BD000004ED00E00A
:102350002DE9FF4383B0074688461D464FF000092C
:102360003C4600BFFFF73AFDA06BE16B884201D30A
:10237000022D28D12A4641462046FEF70EFF06468A
:10238000606A08B9012000E0002068B904F1240067
:1023900000F056FA88B14FF0805032490860BFF320
:1023A0004F8FBFF36F8F08E03EB14FF080502D4943
:1023B0000860BFF34F8FBFF36F8FFFF721FD012040
:1023C00007B0BDE8F083059818B9FFF719FD0020A4
:1023D000F6E7B9F1000F04D101A8FFF7F5FD4FF0C2
:1023E0000109FFF70DFDFFF75DFEFFF7F7FC94F91C
:1023F0004400401C10B9002084F8440094F94500C2
:10240000401C10B9002084F84500FFF7F9FC05A92D
:1024100001A800F0EFF8F0B92046FFF708F8A0B1E6
:1024200004F110000599FFF7E1FD2046FFF75EF982
:1024300000F046FA002895D14FF080500949086015
:10244000BFF34F8FBFF36F8F8CE72046FFF74EF936
:1024500000F036FA86E72046FFF748F900F030FA38
:102460000020ADE704ED00E02DE9F05F05468A4667
:1024700016461F462C4600BFBF21EFF3118081F3A3
:102480001188BFF34F8FBFF36F8F00BF8146A06BE2
:10249000E16B884201D3022F20D194F945B03A462E
:1024A00051462046FEF779FE0BF1010070B9606AD3
:1024B00008B9012000E0002068B904F1240000F010
:1024C000BFF940B13EB10120306004E00BF10100E2
:1024D00040B284F845004FF0010801E04FF00008D9
:1024E00000BF89F3118800BF4046BDE8F09F00009F
:1024F0002DE9F74183B005460F464FF000082C4602
:1025000000BFFFF76BFCA66BF6B139462046FEF71D
:102510002FFE701EA063206908B9012000E0002092
:1025200060B904F1100000F08BF938B14FF0805021
:102530002F490860BFF34F8FBFF36F8FFFF760FC29
:10254000012006B0BDE8F081059818B9FFF758FCE6
:102550000020F6E7B8F1000F04D101A8FFF734FD21
:102560004FF00108FFF74CFCFFF79CFDFFF736FC2E
:1025700094F94400401C10B9002084F8440094F9F8
:102580004500401C10B9002084F84500FFF738FCD6
:1025900005A901A800F02EF8F0B92046FEF73AFF91
:1025A000A0B104F124000599FFF720FD2046FFF7B4
:1025B0009DF800F085F90028A3D14FF080500C4918
:1025C0000860BFF34F8FBFF36F8F9AE72046FFF786
:1025D0008DF800F075F994E72046FFF787F800F0D2
:1025E0006FF92046FEF716FF00288AD00020A8E7E2
:1025F00004ED00E070B506460C46FFF7EFFB12480D
:1026000002687068131A2068401C08B9002517E09A
:102610000E4930680968884204D07068904201D839
:1026200001250DE02068984207D92068C01A206073
:102630003046FFF7C9FC002502E00020206001259C
:10264000FFF7DEFB284670BD540000206800002024
:102650002DE9FF4F85B0804689461746DDE912AB6C
:10266000B800FFF783F8064656B15420FFF77EF80E
:1026700004460CB1266304E03046FFF7D1FB00E0CE
:1026800000247CB10020CDE900ABCDE902403A4600
:1026900049464046089BFEF702FE2046FEF7BAFC7C
:1026A000012501E04FF0FF35284609B0BDE8F08F65
:1026B0000549096809B9012005E00449096809B913
:1026C000022000E0002070475C000020780000201D
:1026D0000149086870470000540000202DE9F041CE
:1026E000002734480068002857D133480068451C4B
:1026F000314805608DB93148D0F800803048006815
:102700002E4908602E48C0F800802E480068401C02
:102710002C490860FEF760FF00BF2B480068854227
:102720003AD300BF25480068006808B9012000E0DE
:10273000002020B14FF0FF30234908602BE01F48F4
:102740000068C068C4686668B54202D21E48066068
:1027500021E0201DFFF7EDFAA06A18B104F118007E
:10276000FFF7E7FA1949E06A0968884202D9174970
:10277000E06A0860E16A01EB8101154A02EB810021
:10278000211DFFF71FFB1349E06A0968C96A8842E7
:10279000C8D30127C6E700BF04E00F480068401C0B
:1027A0000D4908600D48006800B101273846BDE8B2
:1027B000F081000078000020540000204400002038
:1027C0004800002068000020700000205800002011
:1027D000E040002040000020600000206400002055
:1027E00070B505462C4600261DB3A06C401EA064A3
:1027F000616CE06A88421CD0A06CD0B9201DFFF744
:1028000098FA606CE062E06AC0F10500A0610A49D4
:10281000E06A0968884202D90749E06A0860E16A0B
:1028200001EB8101054A02EB8100211DFFF7CAFA85
:102830000126304670BD000058000020E040002016
:1028400070B50646F068C46804F11800FFF771FA25
:1028500015480068A0B9201DFFF76BFA1349E06A1C
:102860000968884202D91149E06A0860E16A01EB0F
:1028700081010F4A02EB8100211DFFF7A3FA04E05A
:1028800004F118010B48FFF79DFA0B49E06A09684B
:10289000C96A884204D9012501200849086000E07E
:1028A0000025284670BD0000780000205800002058
:1028B000E04000206C410020400000206400002027
:1028C00070B500240026FFF789FA2E480068401EE4
:1028D0002C4908600846006800284ED12A48006844
:1028E00000284AD023E02948C068C46804F11800D1
:1028F000FFF71FFA201DFFF71CFA2549E06A096857
:10290000884202D92249E06A0860E16A01EB81014C
:10291000204A02EB8100211DFFF754FA1E49E06AAC
:102920000968C96A884202D301201C490860174817
:10293000006808B9012000E000200028D3D00CB1C5
:10294000FEF74AFE1648056865B100BFFFF7C6FEF0
:1029500010B10120114908606D1E002DF6D1002034
:102960000F4908600D48006838B1012630070D494D
:102970000860BFF34F8FBFF36F8FFFF741FA304608
:1029800070BD000078000020500000206C41002045
:1029900058000020E040002040000020640000209B
:1029A0006000002004ED00E02DE9FC4705460E46DE
:1029B00017469846DDF828902820FEF7D7FE0446F3
:1029C0003CB143463A4631462846CDE90094FEF7ED
:1029D000A9FC2046BDE8FC871CB50024FEF772FB6D
:1029E0000748006850B10748032100238022CDE941
:1029F000001005A10648FFF72BFE044620461CBD2B
:102A00008400002088000020546D722053766300FB
:102A1000D31600082DE9FF4705460C4616461F460B
:102A2000DDF830804FF000091448006810B30094BE
:102A300001960295062C15DAFFF73AFE022808D116
:102A40000023424669460D480068FFF781FC814635
:102A500010E000231A46694608480068FFF778FC32
:102A6000814607E000233A46694604480068FFF7BC
:102A7000FBFC8146484604B0BDE8F0878400002096
:102A80000000000000000000000000000000000046
:102A900000000000F0F0000000007F7F0000000058
:102AA0000606000000F0F00000F0F0000101000058
:102AB00001010000000000000000000080F0700034
:102AC00000C0F070006363FBFF676363FBFF676335
:102AD0006300070701000007070000000000C0E0D6
:102AE0007030F83070E0C00000008387060CFF0CE7
:102AF00018F8F0000000010307061F060703010095
:102B00000000C0E0301030E0C000000080E0701035
:102B1000000000000003070C080C07C3F03C0EE3A4
:102B2000F1180818F0E0000000000000060701009E
:102B300000000103060406030100000000C0E030AD
:102B4000303030E0C000000000E0F0190F0E1C3EF5
:102B500073E1C07030000001030706060606030398
:102B60000103060000F0F000000101000000000079
:102B7000000000C060100000FCFF03000000000126
:102B8000071E304000001060C0000000000000037D
:102B9000FFFC000040301E070100404040F0F040C4
:102BA0004040000203010103020000000000000099
:102BB00000000000000000808000000000000018FD
:102BC000181818FFFF18181818000000000000015E
:102BD00001000000000000000000000000000000F4
:102BE00000000000261E0000000000000000003071
:102BF00030303030300000000000000000000000E5
:102C000000000000000000000000000606000000B8
:102C10000000C0F03000E0FC1F03000607010000C8
:102C2000000080E0703030303060E0800000FFFF56
:102C3000000000000000FFFF00000003030606067E
:102C4000060703000000000080C0C0F0F000000094
:102C500000000001010000FFFF0000000000000074
:102C600000000007070000000000C0E070303030B6
:102C70003070E0C00000000080C06060301C0F03B6
:102C80000000060707060606060606060000C0E066
:102C90007030303070E0C0000000808000000C0C0C
:102CA0000E1BF9F0000001030706060606030300E9
:102CB00000000000000080C0E0F00000000070781C
:102CC0006C676360FFFF60600000000000000000B0
:102CD00007070000000000C0F03030303030300016
:102CE00000008C8F07040606060EFCF800000103A6
:102CF0000706060606030300000000C0E03030307F
:102D00003070E0C00000FFFF0C040606060EFCF861
:102D10000000000103060606060303000000303031
:102D200030303030B0F070300000000000E0F81EAD
:102D3000070100000000000007070000000000007D
:102D4000000000C0E030303030E0C0000000E0F3B0
:102D50001F0C0C0C0C1FF3E0000001030706060615
:102D600006070301000080E0603030303060C08032
:102D70000000879F383030301098FF7F000001033B
:102D80000706060606030100000000000000000020
:102D90000003030000000006060000000000000021
:102DA000000000030300000000261E0000000000D9
:102DB00000000000008080C00000081C1436226360
:102DC00063C1C1800000000000000000000000019D
:102DD000000000000000000000000000000063632D
:102DE00063636363636363630000000000000000CB
:102DF000000000000000C080800000000000000013
:102E0000000080C1C163632236141C080000010069
:102E100000000000000000000000C0E07030303012
:102E20003070E0C000000000000070781C0E070148
:102E30000000000000000606000000000000000086
:102E400080C0E060603030303030307060E0C08092
:102E5000000000F8FE0701F0FC0E0603030386FCE9
:102E60003F0300C3FF7E000001070E1C3933776665
:102E70006666636767663633190C0400000000005D
:102E8000C0F030F0C00000000000C0F03E3F313024
:102E9000313F3EF0C00006070100000000000000C6
:102EA0000107060000F0F0303030303070E0C00034
:102EB000000000FFFF0C0C0C0C0C0E1FF3E00000D8
:102EC0000007070606060606060703010000008045
:102ED000E060703030303070E0C08000007FFFC1B3
:102EE0000000000000000080C14100000001030359
:102EF000070606060607030100000000F0F0303068
:102F00003030303060E0C000000000FFFF00000003
:102F10000000000080FF7F0000000707060606068D
:102F2000060603030100000000F0F03030303030BE
:102F300030303030000000FFFF0C0C0C0C0C0C0C7F
:102F40000C00000000070706060606060606060631
:102F5000000000F0F0303030303030303000000011
:102F6000FFFF0C0C0C0C0C0C0C0000000007070001
:102F70000000000000000000000080C060703030E1
:102F800030303070E0C08000003EFFC10000000023
:102F90001818181818F9F8000000000103030606B5
:102FA000060606070303010000F0F0000000000021
:102FB000000000F0F00000FFFF0C0C0C0C0C0C0CDF
:102FC0000CFFFF00000707000000000000000007E2
:102FD00007000000F0F000000000FFFF000000000C
:102FE0000707000000000000000000F0F0000000F3
:102FF000C0C000000000FFFF00000001030706063C
:1030000007030100000000F0F000000080C0E07045
:103010003010000000FFFF180E1F3F71E0C00000DD
:10302000000000070700000000000103070604007D
:1030300000F0F000000000000000000000FFFF00B2
:103040000000000000000000000707060606060654
:1030500006060000F0F070E000000000000000E054
:1030600070F0F00000FFFF00031FF8C000C0F81F61
:103070000300FFFF0000070700000000070607002D
:1030800000000007070000F0F0E0C00000000000B2
:1030900000F0F00000FFFF0001070E3870C080FF55
:1030A000FF00000707000000000000010307070001
:1030B000000080C06070303030307060C080000030
:1030C000007FFFC10000000000000000C1FF7F0082
:1030D00000000001030706060606070301000000C2
:1030E0000000F0F030303030303070E0C0000000D0
:1030F000FFFF1818181818181C0F07000000070702
:1031000000000000000000000000000080C06070AF
:10311000303030307060E0C00000007FFFC1000040
:10312000000080808000C1FF3F0000000001030715
:1031300006060606070307060C000000F0F0303014
:103140003030303070E0C000000000FFFF0C0C0C8D
:103150000C3CFCEE870300000000070700000000A5
:10316000000001070704000000C0E060303030308C
:103170003060E0C00000C0C387060C0C0C0C1818AF
:10318000F0E000000001030706060606060303013F
:10319000003030303030F0F030303030300000006F
:1031A0000000FFFF00000000000000000000070713
:1031B000000000000000F0F000000000000000002F
:1031C000F0F00000FFFF8000000000000080FFFF23
:1031D0000000000103070606060607030100003091
:1031E000F0E000000000000000E0F03000010F7F80
:1031F000F8C000C0F87F0F010000000000030706C0
:1032000007030000000030F0C00000000000C0F024
:1032100030F0C00000000000C0F03000031FFEE0EE
:1032200000E0FC1F0300011FFCE000E0FE1F0300A4
:10323000000000010706070100000000000107066A
:10324000070100000000103070E080000080E07096
:10325000301000000000C0E17B1E3E7BE1C000009A
:103260000004060703000000000000030706041026
:1032700030F0C0800000000080C0F030100000007E
:1032800001030FFCFC0F0301000000000000000020
:103290000007070000000000000030303030303000
:1032A00030B0F0703000000080E070180C070300B0
:1032B00000000006070706060606060606060600C4
:1032C00000F0F030300000FFFF000000007F7F6062
:1032D000600030F0C000000000031FFCE0000000B0
:1032E00000010706003030F0F000000000FFFF0092
:1032F0000060607F7F000000E0F0F0E00000080F59
:10330000070000070F080000000000000000000098
:1033100000000000000000000000000000000000AD
:1033200000000000000060606060606060606060DD
:10333000606000103060000000000000000000002D
:10334000000000000000000000000000000000007D
:1033500000000000C6E66363333333FFFE00000065
:10336000030706060606030307040000F0F000004A
:1033700000000000000000FFFF0603030307FEF843
:103380000000070703060606070300000000000010
:103390000000000000000000F8FE06030303078E93
:1033A0008C0000000307060606070301000000006A
:1033B0000000000000F0F00000F8FE070303030621
:1033C000FFFF0000000307060606030707000000D2
:1033D0000000000000000000000000F8FE3633335B
:1033E0003333363E380000000303060606060703A3
:1033F00001000000E0F03030300303FFFF03030062
:1034000000000707000000000000000000000000AE
:10341000000000F8FE0703030306FFFF000030333F
:1034200067666666733F1F0000F0F0000000000052
:1034300000000000FFFF0603030307FEFC00000777
:10344000070000000000070700003030000000FF08
:10345000FF00000007070000000030300000FFFF01
:1034600060607F3F00F0F00000000000000000FFFF
:10347000FF30387CEE8703010007070000000107DA
:10348000070400F0F00000FFFF0000070700000045
:10349000000000000000000000000000000000FF2D
:1034A000FF06030303FFFC06030303FFFE00000700
:1034B00007000000000707000000000707000000E9
:1034C00000000000000000000000FFFF06030303EF
:1034D00007FEFC00000707000000000007070000CF
:1034E000000000000000000000000000F8FE0603DD
:1034F00003030306FEF800000003030606060603A6
:10350000030000000000000000000000000000FFB9
:10351000FF0603030307FEF800007F7F030606068D
:103520000703000000000000000000000000000091
:10353000F8FE0703030306FFFF000000030706066B
:1035400006037F7F000000000000000000FFFF0670
:103550000303030007070000000000000000000054
:103560000000000000001C3E3333336363E6C400F8
:10357000000103060606060603010000E0F0000055
:103580000003FFFF0303000003070606000000001E
:10359000000000000000000000FFFF00000000002D
:1035A000FFFF0000010307060606030707000000EF
:1035B000000000000000000000030F3CF0C000C04D
:1035C000F03C0F03000000000307030000000000B0
:1035D00000000000000000000000000000000000EB
:1035E00000031F78E000F07E077EF000E0781F0304
:1035F00000000000000307070000000707030000A9
:1036000000000000000000000000000001038FDC4B
:103610007070DC8F03010406070100000107060437
:10362000000000000000000000000000031F7CF00C
:1036300080C0FC3F030000606060713F0F0100002C
:10364000000000000000000000000083C3E3733BA3
:103650001F0F070707070606060606060000E0F02C
:103660003030003078FF8F00000000003F7F606046
:10367000000000F0F000000000FFFF00000000FF6D
:10368000FF0000003030F0E00000000000CFFF78C5
:10369000300060607F3F000000000000000000007C
:1036A0000000000000180C0C0C1818303030180006
:1036B000000000000000000000000000000000000A
:1036C00000000000000000000000000000000000FA
:1036D00000000000000000000000000000000000EA
:1036E00000000000000000000000000000000000DA
:1036F000000000000000000000000000000000309A
:10370000F0C00306040406C3F03000000000030FFD
:10371000BCF0781E0300000000000606060301004E
:1037200000000000000000003060404060300000F9
:1037300000031F7CF080C0FC3F03000060606071EC
:103740003F0F0100000000000000000000F0F0004A
:103750000000C0C000000000FFFF000000010307E0
:103760000606070301000000000000000000000042
:103770000000000000DB7EE7C3C3E77EDB00000043
:1037800000000000000000000000000000F0F03029
:1037900030303F3F000000FFFF000000000000004D
:1037A0000007070000000000000000F0F00000002B
:1037B000000F0F00000000FFFF00000000C0E0301D
:1037C000303070E0C0000000387DC7C6860C183865
:1037D000F0E00000183870606163733F1C00000067
:1037E00000F0F0303636303036363030000000FF32
:1037F000FF0C0C0C0C0C0C0C0C0000000007070656
:1038000006060606060606060000804020201090E8
:1038100090909020204080003EC100003E4180807A
:103820008040210000C13E000001020204040404A3
:10383000040202010000000080C0603030303030EF
:1038400070E0C08000007FFFCC0C0C0C0C0C000062
:1038500080C1C00000000103030606060606070338
:103860000100000000000000000000000000000057
:1038700020F8DC0622F8DC0602000000000001034C
:103880000200010302000000000000000000000030
:103890000000000006060606060606067E7E0000FC
:1038A0000000000000000000000000000000000018
:1038B00000003030303030300000000000000000E8
:1038C00000804020A0909090901020204080003EEA
:1038D000C10000FF0808182847800000C13E000012
:1038E000010202040404040402020100000606F0BE
:1038F000F006060000FFFF000000000707000000C0
:10390000E030101030E0000001030202030100006B
:10391000000000000000000000000000C0C0000027
:10392000000000000C0C0C0CFFFF0C0C0C0C000039
:1039300006060606060606060606000000F0F0006B
:10394000000000FFFF00000000070700000030300B
:10395000000000FFFF00000007070000000000005B
:103960000000F0F00000FFFF030303030300000763
:103970000700000000000000000000000000000040
:10398000000000FFFF0000000000FFFF00007F7F3D
:103990000306060603070700C0E0F0F0F0F0303041
:1039A000F0F03003070F0FFFFF0000FFFF000000E3
:1039B00000007F7F00007F7F00000000000000000B
:1039C00000000C0C000000000000000000000000DF
:1039D0000060600000606000000000F8FE363333D5
:1039E0003333363E3800000003030606060607039D
:1039F00001000000F0F0E080000000000000F0F0A6
:103A00000000008080800000000000FFFF0003072E
:103A10000E3870C080FFFF001E3F6161613F1E00D5
:103A20000000070700000000000001030707000373
:103A30000303030303030000000000000000000074
:103A4000000000F8FE36333303078E8C00000003BD
:103A50000706060607030100000000000000000042
:103A60000000000000000206DCF82206DCF820005E
:103A700000000203010002030100000000003030DA
:103A80000000FFFF60607F3F0000C0E0603030302A
:103A9000303060E0C00000C0C387060C0C0C0C186E
:103AA00018F0E000000001030706060606060303FF
:103AB00001000000000000000000000000001C3EAB
:103AC0003333336363E6C4000001030606060606CB
:103AD0000301006060000060600000FFFF00000064
:103AE000000707000000000000C0F030F0C0000038
:103AF000000000C0F03E3F3130313F3EF0C00006D4
:103B00000701000000000000000107060000F0F0BF
:103B1000303030303030300000000000FFFF0C0C3F
:103B20000C0C0C0C1CF8F00000000707060606063B
:103B30000606070301000000F0F03030303030702E
:103B4000E0C000000000FFFF0C0C0C0C0C0E1FF37B
:103B5000E000000007070606060606060703010048
:103B60000000F0F0303030303030300000FFFF0027
:103B70000000000000000000070700000000000037
:103B800000000000F0F03030303030F0F000000085
:103B900000E0FF0F0000000000FFFF00007E7F0735
:103BA00006060606060606077F7E000000F0F030D7
:103BB0003030303030303030000000FFFF0C0C0C63
:103BC0000C0C0C0C0C00000000070706060606068D
:103BD0000606060600303070E0C000000000F0F07D
:103BE00000000000C0E0703030000080C063371C6F
:103BF0000808FFFF08081C3763C0800000040603A4
:103C0000010000000000070700000000000103069B
:103C1000040080E0603030303070E0C0000000818F
:103C20008100000C0C0C0E1FF3E0000000030306E3
:103C300006060606030300000000F0F00000000086
:103C400000C0E0F0F000000000FFFF80E0701C0703
:103C50000300FFFF00000000070703010000000051
:103C600000070700000000F0F00003060404C6E3AC
:103C7000F0F000000000FFFF80E0701C070300FF71
:103C8000FF00000000070703010000000000070715
:103C900000000000F0F000000080E0703030000014
:103CA000FFFF08081677E18000000000070700000A
:103CB000000000030704000000F0F0303030303026
:103CC000F0F00000000000FFFF0000000000FFFF18
:103CD00000000206060703000000000007070000BE
:103CE00000F0F070E000000000000000E070F0F074
:103CF0000000FFFF00031FF8C000C0F81F0300FF13
:103D0000FF00000707000000000706070000000092
:103D100007070000F0F00000000000000000F0F0D5
:103D20000000FFFF0C0C0C0C0C0C0C0CFFFF000037
:103D300007070000000000000000070700000080E7
:103D4000C06070303030307060C0800000007FFF95
:103D5000C10000000000000000C1FF7F0000000063
:103D60000103070606060607030100000000F0F045
:103D70003030303030303030F0F00000FFFF0000E5
:103D8000000000000000FFFF000007070000000027
:103D9000000000000707000000F0F0303030303045
:103DA0003070E0C0000000FFFF1818181818181C29
:103DB0000F070000000707000000000000000000DF
:103DC00000000080E060703030303070E0C0800073
:103DD000007FFFC10000000000000080C141000022
:103DE0000001030307060606060703010000303042
:103DF000303030F0F030303030300000000000FF64
:103E0000FF000000000000000000000707000000A5
:103E100000000030F0C00000000000C0F0300000E2
:103E20000000030FBCF0781E03000000000006062F
:103E30000603010000000000000000008080C0C0F8
:103E4000F0F0C0C08080000000003E7FE3C18080B1
:103E5000FFFF8080C1E37F3E000000000001010100
:103E600007070101010000000000103070E0800031
:103E70000080E070301000000000C0E17B1E3E7B3F
:103E8000E1C000000004060703000000000000037A
:103E90000706040000F0F000000000000000F0F051
:103EA0000000000000FFFF00000000000000FFFF16
:103EB00000000000000707060606060606060707BC
:103EC0007E7E0000F0F000000000000000F0F00036
:103ED00000000F1F38303030301018FFFF00000096
:103EE0000000000000000000000707000000F0F0E4
:103EF0000000000000F0F00000000000F0F0000002
:103F0000FFFF0000000000FFFF0000000000FFFFB7
:103F10000000070706060606060707060606060649
:103F20000707000000F0F00000000000F0F00000C3
:103F3000000000F0F000000000FFFF0000000000A3
:103F4000FFFF0000000000FFFF0000000007070661
:103F5000060606060707060606060607077E7E30E3
:103F6000303030F0F00000000000000000000000E1
:103F700000000000FFFF0C0C0C0C0C0C0C18F8F0EF
:103F800000000000000707060606060606060303F3
:103F900001000000F0F00000000000000000000040
:103FA00000F0F000000000FFFF0C0C0C0C0C0C1CCF
:103FB000F8F00000FFFF00000000070706060606F5
:103FC00006060703010000070700000000F0F000EC
:103FD0000000000000000000000000FFFF0C0C0CBF
:103FE0000C0C0C1CF8F0000000070706060606067D
:103FF00006070301000080C0E070303030303060D0
:10400000C080000000C0C18000000C0C0C0C0CCC67
:10401000FF7F0000000103070606060606030301F2
:1040200000000000F0F000000000C0E06030303020
:10403000303060E0C000000000FFFF0C0C0C3FFFC0
:10404000C100000000000000C1FF7F000000070762
:104050000000000000030306060606060303010035
:10406000000000C0E070303030303030F0F0000040
:1040700000000387EEFC3C0C0C0C0CFFFF00000062
:10408000040707010000000000000707000000000F
:104090000000000000000000000000C6E66363337B
:1040A0003333FFFE0000000307060606060303077E
:1040B00004000080E060303030303030100000FF0D
:1040C000FF060303030306FEF800000001030606D3
:1040D00006060303000000000000000000000000CE
:1040E0000000FFFF3333333333FFCE0000070706F2
:1040F00006060606030100000000000000000000A4
:10410000FFFF030303030300070700000000000094
:1041100000000000000000000000000000C0FF3FA1
:10412000030303FFFF00003E3F07060606060607DF
:104130003F3E000000000000000000000000000002
:10414000F8FE3633333333363E38000000030306BF
:104150000606060703010000000000000000000042
:10416000000000000003038FDC7020FFFF2070DCE4
:104170008F03030407030100000707000001030782
:1041800004000000000000000000000084860333EB
:104190003333FECE000001030706060603010000CC
:1041A0000000000000000000000000FFFF80C07061
:1041B0001C0FFFFF000007070701000000070700B2
:1041C000000000306040406030000000FFFF80C011
:1041D000701C0FFFFF000007070701000000070722
:1041E0000000000000000000000000FFFF2070DC65
:1041F0008E0303000707000001030704000000000E
:10420000000000000000000000FFFF03030303FFA5
:10421000FF0006060703000000000707000000007B
:104220000000000000000000000000FFFF0FFCC0C5
:1042300000E0FC0FFFFF0000070700010706070072
:104240000007070000000000000000000000000060
:10425000FFFF3030303030FFFF0000070700000064
:104260000000070700000000000000000000000040
:104270000000F8FE060303030306FEF80000000337
:10428000030606060603030000000000000000000D
:1042900000000000FFFF03030303FFFF0000070708
:1042A0000000000007070000000000000000000000
:1042B000000000FFFF0603030307FEF800007F7FF6
:1042C00003060606070300000000000000000000CF
:1042D00000000000F8FE06030303078E8C000000B8
:1042E00003070606060703010000000000000000A7
:1042F00000000003030303FFFF03030303000000A8
:10430000000707000000000000000000000000009F
:10431000000000031F7CF080C0FC3F0300006060D1
:1043200060713F0F0100000000000000000000006D
:10433000F0F00000000000000000F8FE0703030397
:1043400006FFFF06030307FEF8000000030706064A
:1043500006037F7F0306060703000000000000003D
:10436000000000000001038FDC7070DC8F0301048B
:10437000060701000001070604000000000000001D
:10438000000000000000FFFF0000000000FFFF0031
:10439000000007070606060606077F7E00000000ED
:1043A0000000000000000000003F7FE0C0C0C0C06F
:1043B000FFFF0000000000000000000707000000F1
:1043C000000000000000000000000000000000FFEE
:1043D000FF00000000FFFF00000000FFFF000007DB
:1043E000070606060607070606060607070000007A
:1043F000000000000000000000000000000000FFBE
:10440000FF00000000FFFF00000000FFFF000007AA
:104410000706060606070706060606077F7E000053
:10442000000000000000000000000000030303FF84
:10443000FF30303030E0C000000000000707060603
:10444000060603010000000000000000000000005C
:104450000000000000FFFF3030303030E0C00000CE
:10446000FFFF000007070606060606030100000717
:104470000700000000000000000000000000FFFF37
:104480003030303030E0C000000707060606060670
:104490000301000000000000000000000000008C8C
:1044A0008E0703333336FEF80000010307060606C5
:1044B00007030000000000000000000000000000F2
:1044C0000000000000FFFF3030F8FE060303030386
:1044D00006FEF800000707000000030306060606B4
:1044E00003030000000000000000000000000000C6
:1044F0001E3EB3E3636363FFFF0000060703000093
:10450000000007070000000000000000000000009D
:10451000000000000000000000000000000000009B
:10452000000000000000000000000000000000008B
:10453000000000000000000000000000000000007B
:10454000000000000000000000000000000000006B
:10455000000000000000000000000000000000005B
:10456000000000000000000000000000000000004B
:10457000000000000000000000000000000000003B
:10458000000000000000000000000000010000002A
:10459000020000000300000004000000050000000D
:1045A00006000000070000000800000009000000ED
:1045B0000A0000000B0000000C0000000D000000CD
:1045C0000E0000000F0000001000000011000000AD
:1045D000120000001300000014000000150000008D
:1045E000160000001700000018000000190000006D
:1045F0001A0000001B0000001C0000001D0000004D
:104600001E0000001F00000020000000210000002C
:10461000220000002300000024000000250000000C
:1046200026000000270000002800000029000000EC
:104630002A0000002B0000002C0000002D000000CC
:104640002E0000002F0000003000000031000000AC
:10465000320000003300000034000000350000008C
:10466000360000003700000038000000390000006C
:104670003A0000003B0000003C0000003D0000004C
:104680003E0000003F00000040000000410000002C
:10469000420000004300000044000000450000000C
:1046A00046000000470000004800000049000000EC
:1046B0004A0000004B0000004C0000004D000000CC
:1046C0004E0000004F0000005000000051000000AC
:1046D000520000005300000054000000550000008C
:1046E000560000005700000058000000590000006C
:1046F0005A0000005B0000005C0000005D0000004C
:104700005E0000005F0000000000000000000000EC
:104710000000000000000000000000000000000099
:104720000000000000000000000000000000000089
:104730000000000000000000000000000000000079
:104740000000000000000000000000000000000069
:104750000000000000000000000000000000000059
:104760000000000000000000000000000000000049
:104770000000000000000000000000000000000039
:104780000000000000000000600000006100000068
:10479000620000006300000064000000650000008B
:1047A000660000006700000068000000690000006B
:1047B0006A0000006B0000006C0000006D0000004B
:1047C0006E0000006F00000070000000710000002B
:1047D000720000007300000074000000750000000B
:1047E00076000000770000007800000079000000EB
:1047F0007A0000007B0000007C0000007D000000CB
:104800007E0000007F0000008000000081000000AA
:10481000820000008300000084000000850000008A
:10482000860000008700000088000000890000006A
:104830008A0000008B0000008C0000008D0000004A
:104840008E0000008F00000090000000910000002A
:10485000920000009300000094000000950000000A
:1048600096000000970000009800000099000000EA
:104870009A0000009B0000009C0000009D000000CA
:104880009E0000009F000000A0000000A1000000AA
:10489000A2000000A3000000A4000000A50000008A
:1048A000A6000000A7000000A8000000A90000006A
:1048B000AA000000AB000000AC000000AD0000004A
:1048C000AE000000AF000000B0000000B10000002A
:1048D000B2000000B3000000B4000000B50000000A
:1048E000B6000000B7000000B8000000B9000000EA
:1048F000BA000000BB000000BC000000BD000000CA
:10490000BE000000BF000000000000001200000018
:1049100024000000390000005D000000810000005C
:10492000BA000000E4000000F000000005010000F3
:104930001A01000032010000560100006801000069
:104940007D0100008F010000A1010000C5010000F1
:10495000E90100000D0200003102000055020000D4
:10496000790200009D020000C1020000E502000083
:10497000090300001B0300002D0300005103000089
:104980007503000099030000BD030000FC03000054
:10499000230400004D0400007A040000A704000076
:1049A000D1040000F80400002805000052050000B2
:1049B0006405000085050000AF050000D305000078
:1049C0000606000030060000600600008A060000AF
:1049D000BA060000E70600001107000035070000D6
:1049E0005F07000086070000C5070000EF07000012
:1049F0001908000040080000520800006408000088
:104A0000760800008E080000B2080000C708000009
:104A1000EB0800000C0900002D0900004E09000001
:104A20007209000087090000A8090000C9090000F8
:104A3000D8090000E4090000020A00000E0A000084
:104A40003E0A00005F0A0000830A0000A40A00007A
:104A5000C50A0000DA0A0000FB0A00000D0B000086
:104A60002E0B00004F0B0000820B0000A00B00007B
:104A7000C10B0000DC0B0000F10B0000030C000078
:104A8000180C00003C0C00006C0C00007E0C0000B8
:104A9000A50C0000C60C0000E70C00000B0D000088
:104AA000290D00003B0D00005F0D0000890D000086
:104AB000B60D0000E30D0000070E00002B0E0000F5
:104AC000400E00006D0E00007F0E0000970E0000EB
:104AD000BB0E0000CD0E0000DC0E0000F70E000043
:104AE000180F0000390F00004E0F0000720F000079
:104AF000B70F0000D80F0000FC0F000008100000E6
:104B00003210000053100000651000008C100000EF
:104B1000B6100000E0100000011100002B11000091
:104B20005511000091110000B8110000E5110000BE
:104B300012120000361200006012000093120000F2
:104B4000BD120000ED120000171300004113000019
:104B50006E13000092130000B9130000E913000067
:104B600013140000431400006D140000A31400008F
:104B7000DF140000121500004B1500007515000031
:104B8000A2150000E11500000E160000321600000C
:104B900056160000771600008F160000B3160000AE
:104BA000D7160000011700001F1700004017000073
:104BB000611700007C1700009D170000C41700005B
:104BC000E517000009180000271800004818000029
:104BD0006918000087180000A8180000DB18000002
:104BE000F91800001D1900003E1900006E190000A0
:104BF0009E190000C5190000F2190000131A0000E8
:104C0000341A0000641A0000851A00000600000033
:104C100006000000070000000C0000000C0000006F
:104C2000130000000E000000040000000700000058
:104C300007000000080000000C0000000600000053
:104C40000700000006000000060000000C00000045
:104C50000C0000000C0000000C0000000C00000024
:104C60000C0000000C0000000C0000000C00000014
:104C70000C00000006000000060000000C00000010
:104C80000C0000000C0000000C00000015000000EB
:104C90000D0000000E0000000F0000000F000000DB
:104CA0000E0000000D000000100000000E000000CB
:104CB000060000000B0000000E0000000C000000C9
:104CC000110000000E000000100000000E000000A7
:104CD000100000000F0000000E0000000C0000009B
:104CE0000E0000000D000000150000000E00000086
:104CF0000E0000000D00000006000000060000008D
:104D000006000000080000000C0000000700000082
:104D10000C0000000B0000000B0000000B00000066
:104D20000C000000070000000B0000000B0000005A
:104D300005000000040000000A000000040000005C
:104D4000100000000B0000000C0000000B00000031
:104D50000B000000070000000B0000000600000030
:104D60000B0000000B000000110000000A00000012
:104D70000B00000009000000070000000600000012
:104D8000070000000C0000001000000006000000FA
:104D90000D0000000B0000000B0000000C000000E4
:104DA0000A000000060000000C0000000E000000D9
:104DB0000F0000000F0000000C0000000C000000BD
:104DC000070000000F0000000600000008000000BF
:104DD0000C000000060000000500000009000000B3
:104DE0000B0000000B000000070000000C0000009A
:104DF000170000000B0000000C0000000400000081
:104E00000E0000000B000000060000000D00000076
:104E10000E0000000E0000000B0000000E0000005D
:104E20000E000000140000000D0000000F00000044
:104E30000F0000000C0000000E0000001100000038
:104E40000E000000100000000E0000000E00000028
:104E50000F0000000C0000000D000000100000001A
:104E60000E000000100000000E0000001200000004
:104E70001400000011000000130000000E000000EC
:104E80000F000000150000000F0000000C000000E3
:104E90000C0000000B000000080000000C000000E7
:104EA0000C0000000E0000000A0000000B000000D3
:104EB0000B000000090000000B0000000D000000C6
:104EC0000B0000000C0000000A0000000B000000B6
:104ED0000B0000000A0000000B00000011000000A1
:104EE0000A0000000C0000000B0000001000000091
:104EF000100000000D0000000F0000000B0000007B
:104F00000B000000100000000B000000000000007B
:104F10000000000000F80000170000380038000012
:104F2000000000004040E05840C07840021E0302EC
:104F30001E03020200F088F8081000000C103F1158
:104F40000F00007088887000C0300800000000006A
:104F500000100C03000E11110E0000007088887004
:104F6000000000000E1111120C081610003800008D
:104F700000C03008001F60800830C00080601F0043
:104F80001050385010000000000000000000E00049
:104F90000000000101010F010101000000000000FC
:104FA000700000000000020202000000000000107B
:104FB00000000000E01818070000F008080808F0DA
:104FC000000F101010100F00002010F8000000005B
:104FD00000001F0000001008080808F00010181456
:104FE0001211100010088888887000081010101026
:104FF0000F000000C030F80000040704041F040084
:10500000C0B8888888080009101010100F00F00838
:1050100088888810000F111010100F00080808C8A9
:10502000380800001C030000000070888888887021
:10503000000F101010100F00F008080888F000088A
:10504000111111080700004000000010000000408E
:10505000000000700000000080804040200000013F
:105060000202040408004040404040404000020268
:10507000020202020200002040408080000000087E
:1050800004040202010000300808887000000016C5
:10509000010000008060109048484888C81020C077
:1050A000001F204F909090889E91504C230000004C
:1050B00080700870800000180603020202030618C0
:1050C00000F888888888887000001F101010101061
:1050D0000F0000E01008080810200000070810105A
:1050E0001008040000F80808080810E000001F106D
:1050F00010101008070000F8888888888888000049
:105100001F1010101010100000F888888888080000
:10511000001F00000000000000E010080808081050
:1051200020000007081010111109070000F8808006
:10513000808080F800001F00000000001F0000F8C1
:1051400000001F0000000000F8000C1010100F00FD
:1051500000F800008040201008001F020101020436
:10516000081000F80000000000001F1010101010C0
:1051700000F830C0000000C030F800001F00000739
:10518000180700001F0000F81060800000F8000001
:105190001F00000106081F0000E0100808080810A2
:1051A000E0000007081010101008070000F80808B9
:1051B000080808F000001F0101010101000000E0E3
:1051C000100808080810E000000708101014140860
:1051D000170000F80808080808F000001F01010186
:1051E000030D1000007088888808083000000C103B
:1051F000101011110E00080808F808080800000037
:105200001F00000000F80000000000F80000070880
:10521000101010080700001860800000008060185F
:1052200000000000010618060100000018E0000060
:1052300000F008F0000000E0180000071807000068
:1052400000071807000008304080403008100C02AA
:1052500001020C10000830C000C03008000000003F
:10526000001F0000000000080888681808101816C1
:105270001110101000F8080000FF800018E0000076
:10528000000007180008F8000080FF0000E010E0B0
:10529000000100000001000000000000008080808C
:1052A00080808080000810000000000000804040E6
:1052B000408000000C12120A1F0000F8804040805D
:1052C00000001F1010100F000080404040800000C0
:1052D0000F10101008000080404080F800000F10F0
:1052E00010101F0000804040408000000F1212127A
:1052F0000B0040F04808001F00000080404080C0C4
:1053000000004F9090887F0000F8804040800000AF
:105310001F0000001F0000C800001F000000C88020
:10532000807F00F80000804000001F02030C100086
:1053300000F800001F0000C0804040808040408096
:1053400000001F0000001F0000001F0000C0804080
:10535000408000001F0000001F000080404040808F
:1053600000000F1010100F0000C0804040800000AF
:10537000FF0810100F000080404080C000000F1098
:105380001008FF0000C08040001F00000080404067
:1053900040800000091212120C0040F04000001F73
:1053A000100000C0000000C000000F1010101F000F
:1053B000C0000000C00007180700C0000000C000C7
:1053C0000000C00007180700071807000040800011
:1053D00080400000100D020D100000C0000000C051
:1053E000000080877807000000404040C040000077
:1053F000101C1211100000F00800027D800000F85F
:1054000000007F000008F00000807D0200808080A6
:105410000000800001000001010101000000E02007
:10542000202020E0000000001F101010101F0000BE
:105430000000000000000000001860830283601874
:1054400000000010110E0100000000C0181018C06C
:10545000000080877807000000000000F8000C10B2
:1054600010100F0000408040804000000502040240
:10547000050000F80808080E001F0000000000F8F2
:1054800000007C000080704888900000234644485B
:10549000350700F88A888A88888800001F10101055
:1054A00010101000E010C8282828284810E007082D
:1054B000131414141412080700E0908888081020B0
:1054C0000000070810101008040000000080008091
:1054D0000000060916091000404040404040C0004E
:1054E00000000000000003000000000002020200B3
:1054F000E01008E8282828C810E007081017111144
:105500001314080702F802001F000030484830005A
:1055100000000000000000E00000001111111F1148
:10552000111100F800001F0000C800001F0000C09B
:10553000404078001F00000000C0000000C00000D4
:10554000FF1010101F0070F8F8F808F808000000AD
:105550007F007F000000000000000100008050403C
:10556000508000000F1212120B0000F830C0000033
:10557000F800C0202020C000001F0000030C1F0006
:10558000090A0A0A090000804040408000000F120A
:1055900012100800008000800000000010091609A9
:1055A00006000000C880807F007088888808083066
:1055B00000000C10101011110E00008040404080BF
:1055C0000000091212120C0010C010001F00000091
:1055D000807008708000001806030202020306189B
:1055E00000F888888888880000001F1010101010AC
:1055F0000F0000F888888888887000001F1010103D
:1056000010100F0000F80808080808001F0000002C
:1056100000000000F808080808F800701C131010BB
:1056200010101F7000F888888888888800001F1074
:105630001010101010000808708080F8808070082A
:1056400008100C0300001F0000030C100010088855
:10565000884830000008101010110E0000F80000FB
:10566000804030F800001F0C020100001F0000F80D
:105670000003824330F800001F0C020100001F00ED
:1056800000F8808040300808001F00000106081064
:105690000000F808080808F80010100F00000000CB
:1056A0001F0000F830C0000000C030F800001F00EC
:1056B0000007180700001F0000F88080808080F835
:1056C00000001F00000000001F0000E01008080894
:1056D0000810E0000007081010101008070000F87C
:1056E0000808080808F800001F00000000001F005C
:1056F00000F80808080808F000001F010101010176
:10570000000000E010080808102000000708101032
:1057100010080400080808F80808080000001F0026
:105720000000001860800080601800000010110E5A
:105730000100000000C0201010F8101020C0000070
:10574000030408081F0808040300083040804030A4
:1057500008100C0201020C1000F80000000000000C
:10576000F800001F1010101010101FF000F80000BB
:10577000000000F800000001010101011F0000F815
:10578000000000F8000000F800001F1010101F10AB
:1057900010101F0000F8000000F8000000F80000E2
:1057A0001F1010101F1010101FF0080808F880803C
:1057B000808000000000001F101010100F0000F883
:1057C00080808080000000F800001F101010100F73
:1057D00000001F0000F8808080800000001F101073
:1057E00010100F0000201008888890E000000408C6
:1057F00010101008070000F80000E0100808080862
:1058000010E000001F010107081010101008070029
:1058100000F00808080808F80000100D0301010155
:105820001F0000804040408000000C12120A1F0040
:1058300000F08848488800000F1010100F0000C0CA
:105840004040408000001F1212120D0000C0404076
:1058500040001F0000000000C04040C00000701861
:105860001710101F700000804040408000000F1291
:1058700012120B0040C00000C00000C0401008051C
:10588000021F0205081080404040800008101212DC
:105890000D0000C0000080C000001F0C02011F00AE
:1058A00000C0181098C000001F0C02011F0000C0AB
:1058B00000008040001F020508100000C04040C0EA
:1058C0000010100F00001F0000C0C0000000C0C08A
:1058D00000001F010E100E011F0000C0000000C0DC
:1058E00000001F0202021F000080404040800000B4
:1058F0000F1010100F0000C0404040C000001F00FB
:1059000000001F0000C0804040800000FF08101011
:105910000F0000804040408000000F101010080071
:105920004040C0404000001F000000C0000000C018
:10593000000080877807000000804040F8404080E9
:1059400000000F1010FF10100F000040800080407A
:105950000000100D020D100000C0000000C000008B
:105960001F1010101FF000C0000000C00000010256
:1059700004041F0000C0000000C0000000C00000C0
:105980001F1010101F1010101F0000C0000000C0DA
:10599000000000C00000001F1010101F1010101F8A
:1059A000F0000040C0000000000000001F121212B2
:1059B0000C0000C00000000000C000001F12121206
:1059C0000C001F0000C00000000000001F12121297
:1059D0000C000080404040800000081012120F00B0
:1059E00000C00000804040408000001F02020F10F5
:1059F00010100F000080404040C000001906020255
:105A00001F00000000000000000000000000000077
:105A10000000000000000000000000000000000086
:105A20000000000000000000000000000000000076
:105A30000000000000000000000000000000000066
:105A40000000000000000000000000000000000056
:105A50000000000000000000000000000000000046
:105A60000000000000000000000000000000000036
:105A70000000000000000000000000000000000026
:105A80000000000000000000010000000200000013
:105A900003000000040000000500000006000000F4
:105AA0000700000008000000090000000A000000D4
:105AB0000B0000000C0000000D0000000E000000B4
:105AC0000F00000010000000110000001200000094
:105AD0001300000014000000150000001600000074
