:020000040800F2
:1000000030440020290200083102000833020008B1
:10001000350200083702000839020008000000001D
:100020000000000000000000000000009101000836
:100030003D02000800000000D50100088509000805
:10004000430200084302000843020008430200087C
:10005000430200084302000843020008430200086C
:10006000430200084302000843020008430200085C
:10007000430200080106000843020008430200088A
:10008000430200084302000843020008430200083C
:10009000430200084302000843020008430200082C
:1000A000430200084302000843020008430200081C
:1000B0004302000843020008190A0008430200082E
:1000C00043020008430200084302000843020008FC
:1000D00043020008430200084302000843020008EC
:1000E00043020008430200084302000800F002F83F
:1000F00000F03FF80AA090E8000C82448344AAF183
:100100000107DA4501D100F034F8AFF2090EBAE880
:100110000F0013F0010F18BFFB1A43F0010318473B
:100120006422000084220000103A24BF78C878C1FD
:10013000FAD8520724BF30C830C144BF04680C60ED
:10014000704700000023002400250026103A28BF35
:1001500078C1FBD8520728BF30C148BF0B60704739
:10016000642900F0C980002070471FB51FBD10B57D
:1001700010BD00F0EEF91146FFF7F7FF00F0E2FDC9
:1001800000F00CFA03B4FFF7F2FF03BC00F014FA1E
:10019000224B19680868B0E8F00F80F30988BFF3B4
:1001A0006F8F4FF0000080F311884EF00D0E7047F6
:1001B0000000000006480068006880F3088862B606
:1001C00061B6BFF34F8FBFF36F8F00DF00BF00BF7B
:1001D00008ED00E0EFF30980BFF36F8F0F4B1A6853
:1001E00020E9F00F106008B54FF0BF0080F31188D0
:1001F000BFF34F8FBFF36F8F01F0E8FB4FF00000AC
:1002000080F31188BDE8084019680868B0E8F00F6D
:1002100080F30988BFF36F8F704700BF4000002054
:10022000EFF3058070470000094880470948004700
:10023000FEE7FEE7FEE7FEE7FEE7FEE7FEE7FEE796
:10024000FEE7FEE704480549054A064B70470000F3
:10025000B9090008ED000008303E002030440020BD
:1002600030400020304000200FB41CB5074B06AAD8
:100270007B4469460090059800F021F9002069460A
:1002800000F030F91CBC5DF814FB000071020000A6
:100290002DE9F0410E460446002020622046E16828
:1002A000884730B3252805D0D4E901219047206A3A
:1002B000401CF2E7E168204600278847050018D077
:1002C000A5F14100192802D820354FF400673246C5
:1002D000294620462760FFF743FF40B1012804D09C
:1002E000F61D26F007060836D8E7361DD6E728465D
:1002F000DAE7206ABDE8F0812DE9F04106460024E6
:1003000010687529314616A510D0AFF3008000287B
:1003100002DA404213A507E031688A0701D512A529
:1003200002E0490704D511A5012401E0AFF30080E4
:1003300000210A2206F1240709E0B0FBF2FCB0FB21
:10034000F2F302FB1C00303078541846491C002898
:10035000F3D123462A463046BDE8F04100F050B8BC
:10036000000000002D0000002B0000002000000015
:10037000032A40F2308010F0030C00F0158011F8D1
:10038000013BBCF1020F624498BF11F801CB00F8A9
:10039000013B38BF11F8013BA2F1040298BF00F8FD
:1003A00001CB38BF00F8013B11F0030300F09F8040
:1003B000083AC0F0088051F8043B083A51F804CBE1
:1003C000A0E80810F5E7121D5CBF51F8043B40F8A7
:1003D000043BAFF30080D20724BF11F8013B11F8B2
:1003E00001CB48BF11F8012B24BF00F8013B00F8F6
:1003F00001CB48BF00F8012B70477047704770472A
:100400002DE9F0470D4699469246044600F124082E
:100410000168880604D5E06921F01001216000E040
:100420000120A84201DD471B00E00027A1697A19DD
:1004300002EB0900081AA0612078C00602D4204609
:10044000AFF30080002608E0D4E901211AF8060085
:100450009047206A401C761C20624E45F4DB2078D1
:10046000C0060AD52046AFF3008006E0D4E901219A
:1004700030209047206A401C2062381EA7F10107F7
:10048000F4DC07E0D4E9012118F805009047206A60
:10049000401C2062281EA5F10105F3DC2046AFF3C5
:1004A00000802078000602D50220BDE8F0870120F8
:1004B000FBE7000001694A1C02610878704700B53B
:1004C0008FB0CDE901310021059105497944CDE98D
:1004D000031011466846FFF7DBFE0FB000BD0000B9
:1004E000E5FFFFFF0A6802F8010B0A60704710B5CC
:1004F000203AC0F00B80B1E81850203AA0E818501C
:10050000B1E81850A0E81850BFF4F5AF5FEA027CDC
:1005100024BFB1E81850A0E8185044BF18C918C04B
:10052000BDE810405FEA827C24BF51F8043B40F8EC
:10053000043B08BF7047D20728BF31F8023B48BFD1
:1005400011F8012B28BF20F8023B48BF00F8012B0F
:100550007047754600F02CF8AE46050069465346D4
:1005600020F00700854618B020B5FFF76BFEBDE808
:1005700020404FF000064FF000074FF000084FF00A
:10058000000B21F00701AC46ACE8C009ACE8C0099B
:10059000ACE8C009ACE8C0098D46704710B5044608
:1005A000AFF300802046BDE81040FFF7EBBD000030
:1005B00000487047D03D002001491820ABBEFEE73F
:1005C00026000200704730B50246002011E011F805
:1005D000014B604000230AE000F001041CB18C24B0
:1005E00084EA600400E0441020465C1CE3B2082B5F
:1005F000F2DB141EA2F10105EAB2E8D130BD000021
:100600000548006800F4007028B10348406840F4D1
:100610000070014948607047000002402A48806924
:1006200040F00100284988610846806940F4804014
:1006300088610846806940F00400886123480068AA
:1006400020F03000214908600846006840F0300082
:1006500008600846006820F0C0000860084600688E
:1006600040F0C000086040F2712019490880081D60
:10067000008840F00C00091D088015480C300088E7
:1006800040F0080012490C3108800F48406940F0E2
:1006900001000D4948610E48001F0E4908660E48CA
:1006A00048660820C865002088658020886508485D
:1006B000001FC86408480865082088640020486452
:1006C0009020486470470000001002400408014078
:1006D0000838014000000240000000201E48008849
:1006E00020F400501C4A108041F64C50121F10801C
:1006F000101D008840F40050121D108016480C3860
:10070000008840F04000144A0C3A1080F020121D7E
:10071000108000BF10480C38008800F0400000280E
:10072000F8D00D4808380088C1B20B48008820F482
:100730000050094A108040F27120121F1080101DD5
:10074000008840F40050121D1080F02901D00120D3
:1007500070470320FCE700000C3801402DE9F0470A
:1007600080460C4615461E46DDE908974FF0000A04
:10077000B8F1010F05D1FFF7B1FF032801D1BDE8A2
:10078000F0875EE03148008820F400502F4908804F
:1007900020782F4900F060F8641C681EC5B240F252
:1007A00071202A49091F0880081D008840F4005064
:1007B000091D088008202749C86588640846806D9F
:1007C00040F0010088650846406C40F00100486434
:1007D0001E480830008840F0C0001C4908310880DD
:1007E00000BF1C48006800F400300028F9D0194808
:1007F000406840F40030174948600846806D20F09A
:10080000010088650846406C20F0010048640F48EC
:100810000830008820F0C0000C490831088067B912
:10082000B9F1000F09DD0A4800F027F83070761C96
:10083000A9F1010000F0FF0903E0FF2F01D0781EAD
:10084000C7B2002D9EDC012099E700000C38014062
:10085000000000200000024000220BE000F0010335
:1008600013B1FF230B7001E000230B70491C4010F3
:10087000531CDAB2082AF1DB70470146002000223F
:1008800008E040100B78FF2B01D140F08000491C9C
:10089000531CDAB2082AF4DB704710B500F002F8F6
:1008A00010BD00000CB50020019000903348006896
:1008B00040F480303149086000BF3048006800F4DF
:1008C000003000900198401C0190009818B90198E0
:1008D000B0F5A06FF1D12948006800F4003010B1E4
:1008E0000120009001E0002000900098012843D1F1
:1008F0002348006840F0100021490860084600685D
:1009000020F0030008600846006840F0020008601C
:100910001A484068194948600846406848600846D7
:10092000406840F4806048600846406820F47C10CD
:1009300048600846406840F4E8104860084600688F
:1009400040F08070086000BF0C48006800F0007044
:100950000028F9D00948406820F0030007494860A2
:100960000846406840F00200486000BF0348406805
:1009700000F00C000828F9D10CBD00000010024066
:100980000020024010B500BFBF2080F31188BFF3E4
:100990004F8FBFF36F8F00BF01F022FB18B14FF0F4
:1009A00080500449086000BF002080F3118800BF18
:1009B00010BD000004ED00E010B51348006840F0E1
:1009C00001001149086008464068104908400E4976
:1009D0004860084600680E4908400B490860084610
:1009E000006820F4802008600846406820F4FE007B
:1009F00048604FF41F008860FFF74FFF4FF0006022
:100A00000449086010BD0000001002400000FFF81B
:100A1000FFFFF6FE08ED00E01048008800F001003E
:100A2000D0B10E48008820F001000C490880012058
:100A30000B4908700B480078401C0A4908700846AA
:100A400000780A2808DB08480078C04320B100205D
:100A500005490870034908707047000010080040FD
:100A6000300000203200002031000020AB488069B7
:100A700040F01000A94988610846806940F4006090
:100A800088610846C06940F00100C8610846C06935
:100A900040F00200C8610846806940F001008861AA
:100AA0000846806940F0040088610846806940F08B
:100AB000080088610846C06940F40010C861084613
:100AC000406940F0010048619548406820F44010BA
:100AD000934948600846406840F400104860084662
:100AE000406840F4801048600846406820F44000A8
:100AF00048608C48006820F030008A490860084649
:100B0000006820F0C00008600846006840F040001F
:100B100008600846006820F0030008600846006886
:100B200020F00C0008600846006840F004000860EF
:100B3000CA20410788854007008B40F20111084315
:100B4000890708830846008B4FF2F00108434FF0F5
:100B5000804108830846008940F003000881084668
:100B6000008840F00100088040F2E7306E490880BC
:100B700041F61F40091F08806C486D4988636D4825
:100B8000C8630846006B20F010000863012048632A
:100B90000846006B20F0400008630846006B40F0F8
:100BA000800008630846006B40F4807008630846C4
:100BB000006B40F4806008630846006B40F44050CE
:100BC00008630846006B40F0200008630846006B8D
:100BD00040F0010008630846006B40F00200086323
:100BE00051482038008840F480704F4920390880EF
:100BF0004D482838008840F008004B4928390880C3
:100C0000081F008840F00100091F08804A4840681A
:100C100040F04000484948604248006840F0405079
:100C2000404908600846006840F0004008600846F7
:100C3000006820F080400860081D006840F0030054
:100C4000091D08600846006840F008000860084672
:100C5000006820F00400086000203849088040F255
:100C6000E7303649083108800020091F08803348E2
:100C70002438008840F080003049243908802F480B
:100C80000C38008840F068002C490C3908802B484B
:100C9000001F008840F005002849091F08804FF414
:100CA000FA7026491031088024482030008840F02E
:100CB000470022492031088020482038008840F42D
:100CC00000701E49203908801C482030008840F4FC
:100CD000E8401A49203108800846008840F4004066
:100CE000088016482438008840F001001349243950
:100CF000088040F2E7301249088041F61F40091F82
:100D0000088001200E49203908800D482C380088C1
:100D100040F001000A492C39088070470010024059
:100D200000100140000801402C0400402400004055
:100D3000000002402C00002000000140242C014053
:100D40002C0800401CB5FFF791FEFFF767FCFF2061
:100D500000210B460222CDE9001026A10120FFF759
:100D6000FDFC00220421012000F018FF2249086048
:100D70000846006810B900E000BFFDE71F480321E6
:100D800000238022CDE900101DA1204801F0E2F8E7
:100D90001F48022100238022CDE900101DA1214817
:100DA00001F0D8F82048022100238022CDE900106C
:100DB0001EA1214801F0CEF82048002301224FF463
:100DC000FA7100901EA001F071FA204908600846EF
:100DD000006858B101F0FEF80446002003462246A0
:100DE000012100901948006801F096FA00F0AEFD6C
:100DF00000BFFEE7CC4400001800002010000020D7
:100E00005461736B5F6D61696E000000FD1A00082C
:100E1000080000205461736B5F64733138623230B4
:100E200000000000451A00080C0000205461736B9C
:100E30005F73657475700000651B0008E11600089B
:100E400054696D65725F6D696700000014000020D1
:100E50002DE9F04105460E46164807681648006819
:100E6000001D00F029FC681C38B936B11248016831
:100E7000091D124800F068FC1AE07C190E48006851
:100E80004460BC4207D20C480168091D0C48006848
:100E900000F040FC0CE008480168091D09480068A2
:100EA00000F038FC08480068844201D2064804601B
:100EB000BDE8F0815400002040000020943D002057
:100EC00048000020440000207000002010B50446B7
:100ED00000F046FC22480068401C21490860214877
:100EE000006840B91F4804600846006801280DD119
:100EF00000F08CF90AE01C48006838B9194800680D
:100F0000C06AE16A884201D8164804601748006840
:100F1000401C164908601649E06A0968884202D9EF
:100F20001349E06A0860E16A01EB8101114A02EBB2
:100F30008100211D00F008FC00F024FC0A48006834
:100F400068B108480068C06AE16A884207D24FF079
:100F5000805009490860BFF34F8FBFF36F8F10BDFA
:100F600050000020400000205C0000206C000020A9
:100F700058000020E03C002004ED00E010B500F037
:100F8000EFFB10480068D0B90F4800F0B3FB0F48E2
:100F900000F0B0FB0C480E4908600C480D49086091
:100FA000002210210A2000F0F9FD064908600846D9
:100FB000006820B108A10348006800F001FC00F0BF
:100FC000E1FB10BD84000020A83D0020BC3D0020B6
:100FD0007C00002080000020546D72510000000051
:100FE00010B516E000F0BCFB0C48C068C468201DBA
:100FF00000F062FB0A480068401E09490860094881
:101000000068401E0749086000F0BCFB204600F065
:101010005EF8044800680028E4D110BD803D00203F
:10102000500000204C00002070B504460D46206C96
:1010300070B1216CE0680844E0606168E068884253
:1010400001D32068E0602846226CE168FFF790F940
:1010500070BD2DE9F04104460F4615464FF00008DB
:10106000A66B206C40B9206860BB606801F03AF85C
:1010700080460020606025E07DB93946226CA0687A
:10108000FFF776F9216CA0680844A060D4E901104C
:10109000884217D32068A06014E03946226CE068CB
:1010A000FFF766F9216CE068401AE0602168E068AB
:1010B000884203D2216C6068401AE060022D01D1A1
:1010C00006B1761E701CA0634046BDE8F08110B5E5
:1010D0000446206B00F066FB204600F063FB10BD69
:1010E0000146084A126812680AB9012200E000228B
:1010F0000A600A6822B9034A1268D268106800E0E0
:10110000002070477C00002000BFFFF769FF064801
:1011100000680128F9D94FF0805004490860BFF3F6
:101120004F8FBFF36F8FF0E7E03C002004ED00E04D
:101130002DE9F04106460D4617469846069C0DB926
:10114000246000E02760E66325640121204600F06A
:1011500041FDBDE8F0812DE9FF5F80460F469146D5
:10116000DDE90E6A109CA9F10100216B01EB800BF7
:101170002BF0070B002507E0795D04F134004155A1
:10118000785D00B902E06D1C102DF5D300BF002181
:1011900043200155052E00D30426E6626664002034
:1011A000A064201D00F0B3FA04F1180000F0AFFABB
:1011B0002461C6F10500A06164620020E06484F847
:1011C000500041465846039A00F064FA2060BAF194
:1011D000000F01D0CAF80040BDE8FF9F2DE9F0479D
:1011E00005460E4617469846DDE908945CB1FFF7C0
:1011F000C5FE2560A661E761C4F82080C4F824908C
:10120000201D00F084FABDE8F087000010B500242E
:1012100007E004EB84010F4A02EB810000F06AFA58
:10122000641C052CF5D30C4800F064FA0B4800F060
:1012300061FA0B4800F05EFA0A4800F05BFA0A48CF
:1012400000F058FA04480949086004480849086051
:1012500010BD0000E03C0020443D0020583D00202F
:101260006C3D0020803D0020943D00204400002083
:10127000480000202DE9F04104460D4616461F4661
:101280004FF0000865602461B5420CD8F01BA169DD
:10129000884202D34FF0010811E0211D094800687F
:1012A00000F038FA0BE0BE4204D2BD4202D34FF048
:1012B000010804E0211D0448006800F02BFA4046B4
:1012C000BDE8F081800000207C00002070B505465C
:1012D00000F046FAA86B08B9012400E0002400F0F1
:1012E00051FA204670BD70B5054600F039FAA86B7A
:1012F000E96B884201D1012400E0002400F042FAA9
:10130000204670BDF8B505460E4610480068C06816
:10131000C468201D00F0D0F9E069012811D1A0694E
:1013200041192B4632462046FFF7A4FF48B1002062
:1013300003462A4601460090204600F0EDFF07468E
:1013400000BF2046616A8847F8BD00007C0000208D
:10135000F0B587B056E00398002805DA04AED6E968
:101360000020B168904700BF039800284ADB059C25
:10137000606908B9012000E0002010B9201D00F0CC
:101380009BF902A800F09EF8054603980A2837D278
:10139000DFE800F00905072527320608262800BFE8
:1013A00000BF00BF00BF0498A269811803462A4607
:1013B0002046FFF75FFF88B12046616A8847E069F1
:1013C00001280BD1002000900498A1694218002345
:1013D0001946204600F0A0FF074600BF11E000BFFD
:1013E0000FE000BF0498A061A06941192B462A466E
:1013F0002046FFF73FFF04E0204600F0D3F900E06D
:1014000000BF00BF002203A90348006800F0F2FCFF
:101410000028A0D107B0F0BD84000020F8B5054633
:101420000C4600F0CBFA684600F04CF806460098EF
:1014300020BB44B9B54206D800F0C4FE3146284668
:10144000FFF760FF1CE03CB10E480068006808B977
:10145000012000E000200446A91B22460A4800683B
:1014600000F0C4F900F0AEFE50B94FF080500749CB
:101470000860BFF34F8FBFF36F8F01E000F0A2FE53
:10148000F8BD0000800000208400002004ED00E092
:101490000A490968096809B9012100E0002121B160
:1014A0004FF0FF31064A116006E004490968C96837
:1014B000C868034A4168116070470000440000207A
:1014C0007000002070B5044600F084FD0546074812
:1014D0000068854204D200F00BF80120206001E092
:1014E0000020206001480560284670BD8C00002067
:1014F0002DE9F84326E01D480068C06805681B48D0
:101500000068C068C468201D00F0D6F82046616AF3
:101510008847E069012815D1A0694619AE4207D96C
:1015200066602461211D1148006800F0F3F809E0AD
:10153000002003462A4601460090204600F0ECFEBB
:10154000804600BF09480068006808B9012000E033
:1015500000200028CFD005480768054800680349E7
:10156000086003480760BDE8F88300007C000020A5
:101570008000002000BFBF2080F31188BFF34F8F91
:10158000BFF36F8F00BF00BFFEE708B500BF68461E
:10159000FFF7A6FD044620460099FFF73FFFFFF73F
:1015A000D7FEF4E770B5044600F0DAF894F9455038
:1015B00010E0606A08B9012000E0002038B904F1A9
:1015C000240000F0BFFD18B100F096F900E003E040
:1015D000681E45B2002DECDC00BFFF2084F84500FA
:1015E00000F0D0F800F0BCF894F9445010E0206905
:1015F00008B9012000E0002048B904F1100000F013
:10160000A1FD08B100F078F9681E45B200E001E0E4
:10161000002DECDC00BFFF2084F8440000F0B2F89D
:1016200070BD000070B50446002504F0070020B12D
:1016300004F00700C0F10800044400F0BFF91248AC
:10164000006820B9114820F007000F4908601048D1
:101650000068204443F6F831884210D20C480068F4
:1016600020440B490968884209D90748006808499D
:10167000096845180648006820440549086000F0DC
:10168000A1FD284670BD0000380000209800002011
:1016900034000020001F4FF080730360001F21F012
:1016A00001030360001F034B0360143802602038FD
:1016B000704700007515000801460A69D1E901303C
:1016C0009860D1E9010358605068884201D1886868
:1016D0005060002008611068401E1060106870475C
:1016E0000349C96881F40051014AD1607047000084
:1016F0000010014000F1080141604FF0FF318160AE
:1017000000F10801C1600161002101607047002102
:101710000161704710B502460B685C1C0CB910697A
:1017200007E002F1080000E04068446824689C4239
:10173000FAD944684C604C68A160886041600A61D5
:101740001468641C146010BD42684A6093688B6022
:10175000936859609160086103685B1C036070477F
:1017600000BFBF2080F31188BFF34F8FBFF36F8F8F
:1017700000BF03480068401C014908607047000032
:101780003C00002006480068401E054908600846E5
:10179000006820B9002080F3118800BF00BF7047A7
:1017A0003C0000207047000000204FF0E02108615D
:1017B0008861024848610720086170473F190100AD
:1017C000024600200BE0084B53F8303033B9064B8B
:1017D00043F8301003EBC0035A6002E0401C0A28B3
:1017E000F1D300BF70470000903C00202DE9F0418C
:1017F00005460E4617462C46FFF7B2FF94F9440003
:10180000401C10B9002084F8440094F94500401CA5
:1018100010B9002084F84500FFF7B4FFA06B28B989
:101820003A46314604F1240000F07CF82046FFF7E8
:10183000B9FEBDE8F081000070B50446002544B152
:1018400000F0BCF800212046FFF702FB00F0BAFCD4
:1018500005463DB94FF0805003490860BFF34F8FF4
:10186000BFF36F8F70BD000004ED00E02DE9F0477D
:10187000044688464FF0000900F0A0F816480668B4
:10188000206800EB08052068B04207D92068A8420C
:101890000BD9B54209D94FF0010906E02068A842EA
:1018A00001D8B54201D94FF001092560B9F1000F07
:1018B00003D0A81B0021FFF7CBFA00F083FC0746FA
:1018C0003FB94FF0805005490860BFF34F8FBFF319
:1018D0006F8FBDE8F08700005400002004ED00E0A9
:1018E00003490968016003490968416070470000C5
:1018F0006800002054000020012001490860704762
:101900006400002070B505460C4605480168183192
:101910002846FFF7FFFE01212046FFF799FA70BD28
:101920004000002070B506460D4614460648016882
:1019300018313046FFF708FF0CB14FF0FF35214654
:101940002846FFF785FA70BD400000201CB51448FA
:1019500000210B468022CDE9001012A1134800F0AF
:10196000F9FA0446012C02D100F0B8FC0446012C1F
:1019700014D100BFBF2080F31188BFF34F8FBFF396
:101980006F8F00BF4FF0FF300949086001200949FF
:10199000086000200849086000F0E6F81CBD00005F
:1019A0007400002049444C45000000000911000863
:1019B000700000205C0000205400002002480068F5
:1019C000401C0149086070477800002018480068F2
:1019D00018B101201749086028E000201549086067
:1019E0001548016800E0491E01EB8100134A52F8D6
:1019F000200008B9012000E000200028F3D101EB0D
:101A000081020E4B03EB820042685268426000F193
:101A100008024368934202D14268526842604268B9
:101A2000D268074B1A600448016000BF704700008D
:101A3000780000206400002058000020E03C0020D6
:101A40004000002088B000262548039000F0C2FA2C
:101A5000049000BF72B602200B2105AB0A46CDE907
:101A6000001020A10120FEF779FE2149087005A988
:101A70000920FEF7A8FD08B9002600E0012662B69D
:101A80009DF815004007400E9DF8141040EA2115FE
:101A90009DF8140000F00F04600000EBC404241152
:101AA00003984570039884700398C67000200399CA
:101AB000087000231A4603A90E48006800F0CAF80F
:101AC000FF2000210B460222CDE900100AA10120CF
:101AD000FEF744FE4FF47A7104A8FFF7C7FEB9E79A
:101AE0001C000020CCBEFFFFFFFFFFFFFFFFFF0039
:101AF0002900002018000020CC4400001FB500BFC2
:101B0000002269460E48006800F074F908B1009898
:101B10004478009885780098C67800BF26B109A15E
:101B200001A8FEF7A1FB05E02B46224609A101A86A
:101B3000FEF79AFB4FF4FA70FFF77EFEE0E7000035
:101B400018000020D2E5ECEFE5F03D6572726F728F
:101B500000000000D2E5ECEFE5F03D25642E2564A1
:101B60000000000000BFFEE710B50A48006840F41E
:101B70007F00084908600846006840F07F40086020
:101B8000FFF712FE002004490860FEF713FB002057
:101B900010BD000020ED00E03C0000202DE9F843DE
:101BA00007460D4690460DB9002601E007FB05F6F5
:101BB00006F14800FFF736FD044644B104F1480938
:101BC00043464A46294638460094FFF7B1FA204674
:101BD000BDE8F88370B505460E462C46FFF7C0FDFC
:101BE000D4E90F12206801FB020060600020A063AE
:101BF0002068A060E06B401E226C216800FB021090
:101C0000E060FF2084F8440084F845009EB9206914
:101C100008B9012000E00020A8B904F1100000F08C
:101C200091FA80B14FF0805009490860BFF34F8F9F
:101C3000BFF36F8F07E004F11000FFF75BFD04F1C5
:101C40002400FFF757FDFFF79DFD012070BD000048
:101C500004ED00E02DE9FF4383B0074688461D46AA
:101C60004FF000093C4600BFFFF77AFDA06BE16B27
:101C7000884201D3022D28D12A4641462046FFF74B
:101C8000E8F90646606A08B9012000E0002068B95A
:101C900004F1240000F056FA88B14FF08050324928
:101CA0000860BFF34F8FBFF36F8F08E03EB14FF076
:101CB00080502D490860BFF34F8FBFF36F8FFFF740
:101CC00061FD012007B0BDE8F083059818B9FFF762
:101CD00059FD0020F6E7B9F1000F04D101A8FFF784
:101CE000FFFD4FF00109FFF74DFDFFF767FEFFF71E
:101CF00037FD94F94400401C10B9002084F84400DA
:101D000094F94500401C10B9002084F84500FFF705
:101D100039FD05A901A800F0EFF8F0B92046FFF75A
:101D2000E2FAA0B104F110000599FFF7EBFD20469F
:101D3000FFF738FC00F046FA002895D14FF08050AC
:101D400009490860BFF34F8FBFF36F8F8CE72046C0
:101D5000FFF728FC00F036FA86E72046FFF722FC62
:101D600000F030FA0020ADE704ED00E02DE9F05F6F
:101D700005468A4616461F462C4600BFBF21EFF394
:101D8000118081F31188BFF34F8FBFF36F8F00BFB6
:101D90008146A06BE16B884201D3022F20D194F9D8
:101DA00045B03A4651462046FFF753F90BF1010082
:101DB00070B9606A08B9012000E0002068B904F138
:101DC000240000F0BFF940B13EB10120306004E0D2
:101DD0000BF1010040B284F845004FF0010801E02A
:101DE0004FF0000800BF89F3118800BF4046BDE8EE
:101DF000F09F00002DE9F74183B005460F464FF0F4
:101E000000082C4600BFFFF7ABFCA66BF6B13946C5
:101E10002046FFF709F9701EA063206908B9012068
:101E200000E0002060B904F1100000F08BF938B137
:101E30004FF080502F490860BFF34F8FBFF36F8F73
:101E4000FFF7A0FC012006B0BDE8F081059818B9A5
:101E5000FFF798FC0020F6E7B8F1000F04D101A8C5
:101E6000FFF73EFD4FF00108FFF78CFCFFF7A6FDE2
:101E7000FFF776FC94F94400401C10B9002084F868
:101E8000440094F94500401C10B9002084F8450036
:101E9000FFF778FC05A901A800F02EF8F0B920465C
:101EA000FFF714FAA0B104F124000599FFF72AFD09
:101EB0002046FFF777FB00F085F90028A3D14FF00B
:101EC00080500C490860BFF34F8FBFF36F8F9AE7C4
:101ED0002046FFF767FB00F075F994E72046FFF70F
:101EE00061FB00F06FF92046FFF7F0F900288AD077
:101EF0000020A8E704ED00E070B506460C46FFF7A9
:101F00002FFC124802687068131A2068401C08B938
:101F1000002517E00E4930680968884204D07068CF
:101F2000904201D801250DE02068984207D9206829
:101F3000C01A20603046FFF7D3FC002502E00020E5
:101F400020600125FFF71EFC284670BD54000020CC
:101F5000680000202DE9FF4F85B08046894617466E
:101F6000DDE912ABB800FFF75DFB064656B1542021
:101F7000FFF758FB04460CB1266304E03046FFF738
:101F800011FC00E000247CB10020CDE900ABCDE9DC
:101F900002403A4649464046089BFFF7DCF8204697
:101FA000FEF794FF012501E04FF0FF35284609B008
:101FB000BDE8F08F0549096809B9012005E0044929
:101FC000096809B9022000E0002070475C00002089
:101FD0007800002001490868704700005400002084
:101FE0002DE9F041002734480068002857D13348D4
:101FF0000068451C314805608DB93148D0F8008033
:10200000304800682E4908602E48C0F800802E48ED
:102010000068401C2C490860FFF73AFA00BF2B48C3
:10202000006885423AD300BF25480068006808B9B7
:10203000012000E0002020B14FF0FF30234908606C
:102040002BE01F480068C068C4686668B54202D2C9
:102050001E48066021E0201DFFF72EFBA06A18B184
:1020600004F11800FFF728FB1949E06A0968884263
:1020700002D91749E06A0860E16A01EB8101154A5B
:1020800002EB8100211DFFF75FFB1349E06A09683D
:10209000C96A8842C8D30127C6E700BF04E00F48D9
:1020A0000068401C0D4908600D48006800B1012718
:1020B0003846BDE8F0810000780000205400002080
:1020C000440000204800002068000020700000202C
:1020D00058000020E03C002040000020600000206C
:1020E0006400002070B505462C4600261DB3A06C88
:1020F000401EA064616CE06A88421CD0A06CD0B91C
:10210000201DFFF7D9FA606CE062E06AC0F10500BB
:10211000A0610A49E06A0968884202D90749E06A71
:102120000860E16A01EB8101054A02EB8100211D93
:10213000FFF70AFB0126304670BD00005800002062
:10214000E03C002070B50646F068C46804F1180051
:10215000FFF7B2FA15480068A0B9201DFFF7ACFAE6
:102160001349E06A0968884202D91149E06A0860A7
:10217000E16A01EB81010F4A02EB8100211DFFF7AB
:10218000E3FA04E004F118010B48FFF7DDFA0B490C
:10219000E06A0968C96A884204D901250120084912
:1021A000086000E00025284670BD0000780000208F
:1021B00058000020E03C00206C3D00204000002042
:1021C0006400002070B500240026FFF7C9FA2E48ED
:1021D0000068401E2C4908600846006800284ED15F
:1021E0002A48006800284AD023E02948C068C4680B
:1021F00004F11800FFF760FA201DFFF75DFA25498A
:10220000E06A0968884202D92249E06A0860E16A06
:1022100001EB8101204A02EB8100211DFFF794FAB6
:102220001E49E06A0968C96A884202D301201C4934
:1022300008601748006808B9012000E00020002865
:10224000D3D00CB1FFF724F91648056865B100BF7B
:10225000FFF7C6FE10B10120114908606D1E002D68
:10226000F6D100200F4908600D48006838B10126FA
:1022700030070D490860BFF34F8FBFF36F8FFFF733
:1022800081FA304670BD0000780000205000002028
:102290006C3D002058000020E03C00204000002061
:1022A000640000206000002004ED00E02DE9FC4700
:1022B00005460E4617469846DDF828902820FFF779
:1022C000B1F904463CB143463A4631462846CDE989
:1022D0000094FEF783FF2046BDE8FC871CB5002470
:1022E000FEF74CFE0748006850B107480321002361
:1022F0008022CDE9001005A10648FFF72BFE044619
:1023000020461CBD8400002088000020546D7220EF
:10231000537663008B1500082DE9FF4705460C46F0
:1023200016461F46DDF830804FF00009144800685B
:1023300010B3009401960295062C15DAFFF73AFEC9
:10234000022808D10023424669460D480068FFF77D
:1023500081FC814610E000231A466946084800685F
:10236000FFF778FC814607E000233A4669460448B7
:102370000068FFF7FBFC8146484604B0BDE8F087E3
:1023800084000020A423000800000020900000002A
:10239000280100083424000890000020A043000019
:1023A00044010008000000000000000000000000E0
:1023B000000000000000000000000000000000001D
:1023C000000000000000000000000000000000000D
:1023D00000000000000100000000000000000000FC
:1023E000AAAAAAAA00000000000000000000000045
:1023F00000000000000000000000000000000000DD
:1024000000000000000000000000000000000000CC
:1024100000000000000000000000000000000000BC
:1024200000000000000000000000000000000000AC
:0424300000000000A8
:04000005080000ED02
:00000001FF
